{"contracts/Staker.sol":{"Staker":{"abi":[{"inputs":[{"internalType":"address","name":"_airnodeRrp","type":"address"}],"stateMutability":"nonpayable","type":"constructor"},{"anonymous":false,"inputs":[{"indexed":true,"internalType":"bytes32","name":"requestId","type":"bytes32"},{"indexed":false,"internalType":"uint256","name":"response","type":"uint256"}],"name":"ReceivedUint256","type":"event"},{"anonymous":false,"inputs":[{"indexed":true,"internalType":"bytes32","name":"requestId","type":"bytes32"},{"indexed":false,"internalType":"uint256[]","name":"response","type":"uint256[]"}],"name":"ReceivedUint256Array","type":"event"},{"anonymous":false,"inputs":[{"indexed":true,"internalType":"bytes32","name":"requestId","type":"bytes32"}],"name":"RequestedUint256","type":"event"},{"anonymous":false,"inputs":[{"indexed":true,"internalType":"bytes32","name":"requestId","type":"bytes32"},{"indexed":false,"internalType":"uint256","name":"size","type":"uint256"}],"name":"RequestedUint256Array","type":"event"},{"inputs":[],"name":"airnode","outputs":[{"internalType":"address","name":"","type":"address"}],"stateMutability":"view","type":"function"},{"inputs":[],"name":"airnodeRrp","outputs":[{"internalType":"contract IAirnodeRrpV0","name":"","type":"address"}],"stateMutability":"view","type":"function"},{"inputs":[],"name":"endpointIdUint256","outputs":[{"internalType":"bytes32","name":"","type":"bytes32"}],"stateMutability":"view","type":"function"},{"inputs":[],"name":"endpointIdUint256Array","outputs":[{"internalType":"bytes32","name":"","type":"bytes32"}],"stateMutability":"view","type":"function"},{"inputs":[{"internalType":"bytes32","name":"","type":"bytes32"}],"name":"expectingRequestWithIdToBeFulfilled","outputs":[{"internalType":"bool","name":"","type":"bool"}],"stateMutability":"view","type":"function"},{"inputs":[{"internalType":"bytes32","name":"requestId","type":"bytes32"},{"internalType":"bytes","name":"data","type":"bytes"}],"name":"fulfillUint256","outputs":[],"stateMutability":"nonpayable","type":"function"},{"inputs":[{"internalType":"bytes32","name":"requestId","type":"bytes32"},{"internalType":"bytes","name":"data","type":"bytes"}],"name":"fulfillUint256Array","outputs":[],"stateMutability":"nonpayable","type":"function"},{"inputs":[],"name":"makeRequestUint256","outputs":[{"internalType":"bytes32","name":"","type":"bytes32"}],"stateMutability":"nonpayable","type":"function"},{"inputs":[{"internalType":"uint256","name":"size","type":"uint256"}],"name":"makeRequestUint256Array","outputs":[],"stateMutability":"nonpayable","type":"function"},{"inputs":[{"internalType":"bytes32","name":"","type":"bytes32"}],"name":"requestIdWinningNumber","outputs":[{"internalType":"uint256","name":"","type":"uint256"}],"stateMutability":"view","type":"function"},{"inputs":[],"name":"roulette","outputs":[{"internalType":"contract Roulette","name":"","type":"address"}],"stateMutability":"view","type":"function"},{"inputs":[{"internalType":"address","name":"_airnode","type":"address"},{"internalType":"bytes32","name":"_endpointIdUint256","type":"bytes32"},{"internalType":"bytes32","name":"_endpointIdUint256Array","type":"bytes32"},{"internalType":"address","name":"_sponsorWallet","type":"address"}],"name":"setRequestParameters","outputs":[],"stateMutability":"nonpayable","type":"function"},{"inputs":[{"internalType":"contract Roulette","name":"_roulette","type":"address"}],"name":"setRoulette","outputs":[],"stateMutability":"nonpayable","type":"function"},{"inputs":[],"name":"sponsorWallet","outputs":[{"internalType":"address","name":"","type":"address"}],"stateMutability":"view","type":"function"}],"evm":{"bytecode":{"linkReferences":{},"object":"60a060405234801561001057600080fd5b50604051610bf4380380610bf483398101604081905261002f916100aa565b606081901b6001600160601b031916608052604051632b77c09f60e21b81523060048201526001602482015281906001600160a01b0382169063addf027c90604401600060405180830381600087803b15801561008b57600080fd5b505af115801561009f573d6000803e3d6000fd5b5050505050506100d8565b6000602082840312156100bb578081fd5b81516001600160a01b03811681146100d1578182fd5b9392505050565b60805160601c610ae2610112600039600081816101e3015281816102a50152818161041b0152818161051f01526107020152610ae26000f3fe608060405234801561001057600080fd5b50600436106100ea5760003560e01c806371bab6661161008c578063a36ff4d811610066578063a36ff4d814610259578063bf90fb4e1461026c578063dea12bad1461027f578063e713f1271461028757600080fd5b806371bab666146101de578063851244f71461021d578063a19954af1461025057600080fd5b80632b7d3d22116100c85780632b7d3d22146101405780632d0a2345146101535780633718d90a146101835780635675e4e41461019657600080fd5b806307b9fc57146100ef5780630d31d52a1461010b578063204288ca14610120575b600080fd5b6100f860015481565b6040519081526020015b60405180910390f35b61011e610119366004610901565b61029a565b005b6100f861012e3660046108d1565b60066020526000908152604090205481565b61011e61014e3660046108d1565b6103c7565b61011e610161366004610978565b600480546001600160a01b0319166001600160a01b0392909216919091179055565b61011e610191366004610901565b610514565b61011e6101a43660046107c8565b600080546001600160a01b039586166001600160a01b03199182161790915560019390935560029190915560038054919093169116179055565b6102057f000000000000000000000000000000000000000000000000000000000000000081565b6040516001600160a01b039091168152602001610102565b61024061022b3660046108d1565b60056020526000908152604090205460ff1681565b6040519015158152602001610102565b6100f860025481565b600054610205906001600160a01b031681565b600354610205906001600160a01b031681565b6100f861069f565b600454610205906001600160a01b031681565b336001600160a01b037f000000000000000000000000000000000000000000000000000000000000000016146103105760405162461bcd60e51b8152602060048201526016602482015275043616c6c6572206e6f74204169726e6f6465205252560541b60448201526064015b60405180910390fd5b60008381526005602052604090205460ff166103655760405162461bcd60e51b81526020600482015260146024820152732932b8bab2b9ba1024a2103737ba1035b737bbb760611b6044820152606401610307565b6000838152600560205260408120805460ff1916905561038782840184610811565b9050837f47b5f552f55573ad9b766ef18360830d3e90ecdfbef4c7bea49379a0ce64913c826040516103b99190610a3a565b60405180910390a250505050565b600080546002546003546040805161317560f01b60208201526373697a6560e01b818301526060808201889052825180830390910181526080820192839052636e6be03f60e01b9092526001600160a01b037f0000000000000000000000000000000000000000000000000000000000000000811695636e6be03f95610466959183169490933093909216918391630698ea9560e11b9160840161099b565b602060405180830381600087803b15801561048057600080fd5b505af1158015610494573d6000803e3d6000fd5b505050506040513d601f19601f820116820180604052508101906104b891906108e9565b60008181526005602052604090819020805460ff191660011790555190915081907f6529de56040715a55618ee5797cd3bc856b65ded8fee01e2a24c8481de9e2aaf906105089085815260200190565b60405180910390a25050565b336001600160a01b037f000000000000000000000000000000000000000000000000000000000000000016146105855760405162461bcd60e51b8152602060048201526016602482015275043616c6c6572206e6f74204169726e6f6465205252560541b6044820152606401610307565b60008381526005602052604090205460ff166105da5760405162461bcd60e51b81526020600482015260146024820152732932b8bab2b9ba1024a2103737ba1035b737bbb760611b6044820152606401610307565b6000838152600560205260408120805460ff191690556105fc828401846108d1565b60008581526006602052604090819020829055600480549151637018a7af60e01b81529081018390529192506001600160a01b031690637018a7af90602401600060405180830381600087803b15801561065557600080fd5b505af1158015610669573d6000803e3d6000fd5b50505050837f1ca47bacd454c26163f84eff4aa514e291ba9fa67ad6029e39567c122bbed30f826040516103b991815260200190565b60008054600154600354604051636e6be03f60e01b81526001600160a01b0393841660048201526024810192909252306044830181905290831660648301526084820152631b8c6c8560e11b60a482015260e060c482015260e4810183905282917f00000000000000000000000000000000000000000000000000000000000000001690636e6be03f9061010401602060405180830381600087803b15801561074757600080fd5b505af115801561075b573d6000803e3d6000fd5b505050506040513d601f19601f8201168201806040525081019061077f91906108e9565b600081815260056020526040808220805460ff191660011790555191925082917fcba2da2f3c0c732a104019a3104936397dde7343964c1518ceb760052e4537b19190a2919050565b600080600080608085870312156107dd578384fd5b84356107e881610a94565b93506020850135925060408501359150606085013561080681610a94565b939692955090935050565b60006020808385031215610823578182fd5b823567ffffffffffffffff8082111561083a578384fd5b818501915085601f83011261084d578384fd5b81358181111561085f5761085f610a7e565b8060051b604051601f19603f8301168101818110858211171561088457610884610a7e565b604052828152858101935084860182860187018a10156108a2578788fd5b8795505b838610156108c45780358552600195909501949386019386016108a6565b5098975050505050505050565b6000602082840312156108e2578081fd5b5035919050565b6000602082840312156108fa578081fd5b5051919050565b600080600060408486031215610915578283fd5b83359250602084013567ffffffffffffffff80821115610933578384fd5b818601915086601f830112610946578384fd5b813581811115610954578485fd5b876020828501011115610965578485fd5b6020830194508093505050509250925092565b600060208284031215610989578081fd5b813561099481610a94565b9392505050565b6001600160a01b03888116825260208083018990528782166040840152868216606084015290851660808301526001600160e01b0319841660a083015260e060c083018190528351908301819052600091825b82811015610a0b57858101820151858201610100015281016109ee565b82811115610a1d578361010084870101525b5050601f01601f1916919091016101000198975050505050505050565b6020808252825182820181905260009190848201906040850190845b81811015610a7257835183529284019291840191600101610a56565b50909695505050505050565b634e487b7160e01b600052604160045260246000fd5b6001600160a01b0381168114610aa957600080fd5b5056fea26469706673582212201fcd617b5d3b8296a7f5ae4a04fcd6597968ecb9b5c1b65f4bd404eaf8a3795664736f6c63430008040033","opcodes":"PUSH1 0xA0 PUSH1 0x40 MSTORE CALLVALUE DUP1 ISZERO PUSH2 0x10 JUMPI PUSH1 0x0 DUP1 REVERT JUMPDEST POP PUSH1 0x40 MLOAD PUSH2 0xBF4 CODESIZE SUB DUP1 PUSH2 0xBF4 DUP4 CODECOPY DUP2 ADD PUSH1 0x40 DUP2 SWAP1 MSTORE PUSH2 0x2F SWAP2 PUSH2 0xAA JUMP JUMPDEST PUSH1 0x60 DUP2 SWAP1 SHL PUSH1 0x1 PUSH1 0x1 PUSH1 0x60 SHL SUB NOT AND PUSH1 0x80 MSTORE PUSH1 0x40 MLOAD PUSH4 0x2B77C09F PUSH1 0xE2 SHL DUP2 MSTORE ADDRESS PUSH1 0x4 DUP3 ADD MSTORE PUSH1 0x1 PUSH1 0x24 DUP3 ADD MSTORE DUP2 SWAP1 PUSH1 0x1 PUSH1 0x1 PUSH1 0xA0 SHL SUB DUP3 AND SWAP1 PUSH4 0xADDF027C SWAP1 PUSH1 0x44 ADD PUSH1 0x0 PUSH1 0x40 MLOAD DUP1 DUP4 SUB DUP2 PUSH1 0x0 DUP8 DUP1 EXTCODESIZE ISZERO DUP1 ISZERO PUSH2 0x8B JUMPI PUSH1 0x0 DUP1 REVERT JUMPDEST POP GAS CALL ISZERO DUP1 ISZERO PUSH2 0x9F JUMPI RETURNDATASIZE PUSH1 0x0 DUP1 RETURNDATACOPY RETURNDATASIZE PUSH1 0x0 REVERT JUMPDEST POP POP POP POP POP POP PUSH2 0xD8 JUMP JUMPDEST PUSH1 0x0 PUSH1 0x20 DUP3 DUP5 SUB SLT ISZERO PUSH2 0xBB JUMPI DUP1 DUP2 REVERT JUMPDEST DUP2 MLOAD PUSH1 0x1 PUSH1 0x1 PUSH1 0xA0 SHL SUB DUP2 AND DUP2 EQ PUSH2 0xD1 JUMPI DUP2 DUP3 REVERT JUMPDEST SWAP4 SWAP3 POP POP POP JUMP JUMPDEST PUSH1 0x80 MLOAD PUSH1 0x60 SHR PUSH2 0xAE2 PUSH2 0x112 PUSH1 0x0 CODECOPY PUSH1 0x0 DUP2 DUP2 PUSH2 0x1E3 ADD MSTORE DUP2 DUP2 PUSH2 0x2A5 ADD MSTORE DUP2 DUP2 PUSH2 0x41B ADD MSTORE DUP2 DUP2 PUSH2 0x51F ADD MSTORE PUSH2 0x702 ADD MSTORE PUSH2 0xAE2 PUSH1 0x0 RETURN INVALID PUSH1 0x80 PUSH1 0x40 MSTORE CALLVALUE DUP1 ISZERO PUSH2 0x10 JUMPI PUSH1 0x0 DUP1 REVERT JUMPDEST POP PUSH1 0x4 CALLDATASIZE LT PUSH2 0xEA JUMPI PUSH1 0x0 CALLDATALOAD PUSH1 0xE0 SHR DUP1 PUSH4 0x71BAB666 GT PUSH2 0x8C JUMPI DUP1 PUSH4 0xA36FF4D8 GT PUSH2 0x66 JUMPI DUP1 PUSH4 0xA36FF4D8 EQ PUSH2 0x259 JUMPI DUP1 PUSH4 0xBF90FB4E EQ PUSH2 0x26C JUMPI DUP1 PUSH4 0xDEA12BAD EQ PUSH2 0x27F JUMPI DUP1 PUSH4 0xE713F127 EQ PUSH2 0x287 JUMPI PUSH1 0x0 DUP1 REVERT JUMPDEST DUP1 PUSH4 0x71BAB666 EQ PUSH2 0x1DE JUMPI DUP1 PUSH4 0x851244F7 EQ PUSH2 0x21D JUMPI DUP1 PUSH4 0xA19954AF EQ PUSH2 0x250 JUMPI PUSH1 0x0 DUP1 REVERT JUMPDEST DUP1 PUSH4 0x2B7D3D22 GT PUSH2 0xC8 JUMPI DUP1 PUSH4 0x2B7D3D22 EQ PUSH2 0x140 JUMPI DUP1 PUSH4 0x2D0A2345 EQ PUSH2 0x153 JUMPI DUP1 PUSH4 0x3718D90A EQ PUSH2 0x183 JUMPI DUP1 PUSH4 0x5675E4E4 EQ PUSH2 0x196 JUMPI PUSH1 0x0 DUP1 REVERT JUMPDEST DUP1 PUSH4 0x7B9FC57 EQ PUSH2 0xEF JUMPI DUP1 PUSH4 0xD31D52A EQ PUSH2 0x10B JUMPI DUP1 PUSH4 0x204288CA EQ PUSH2 0x120 JUMPI JUMPDEST PUSH1 0x0 DUP1 REVERT JUMPDEST PUSH2 0xF8 PUSH1 0x1 SLOAD DUP2 JUMP JUMPDEST PUSH1 0x40 MLOAD SWAP1 DUP2 MSTORE PUSH1 0x20 ADD JUMPDEST PUSH1 0x40 MLOAD DUP1 SWAP2 SUB SWAP1 RETURN JUMPDEST PUSH2 0x11E PUSH2 0x119 CALLDATASIZE PUSH1 0x4 PUSH2 0x901 JUMP JUMPDEST PUSH2 0x29A JUMP JUMPDEST STOP JUMPDEST PUSH2 0xF8 PUSH2 0x12E CALLDATASIZE PUSH1 0x4 PUSH2 0x8D1 JUMP JUMPDEST PUSH1 0x6 PUSH1 0x20 MSTORE PUSH1 0x0 SWAP1 DUP2 MSTORE PUSH1 0x40 SWAP1 KECCAK256 SLOAD DUP2 JUMP JUMPDEST PUSH2 0x11E PUSH2 0x14E CALLDATASIZE PUSH1 0x4 PUSH2 0x8D1 JUMP JUMPDEST PUSH2 0x3C7 JUMP JUMPDEST PUSH2 0x11E PUSH2 0x161 CALLDATASIZE PUSH1 0x4 PUSH2 0x978 JUMP JUMPDEST PUSH1 0x4 DUP1 SLOAD PUSH1 0x1 PUSH1 0x1 PUSH1 0xA0 SHL SUB NOT AND PUSH1 0x1 PUSH1 0x1 PUSH1 0xA0 SHL SUB SWAP3 SWAP1 SWAP3 AND SWAP2 SWAP1 SWAP2 OR SWAP1 SSTORE JUMP JUMPDEST PUSH2 0x11E PUSH2 0x191 CALLDATASIZE PUSH1 0x4 PUSH2 0x901 JUMP JUMPDEST PUSH2 0x514 JUMP JUMPDEST PUSH2 0x11E PUSH2 0x1A4 CALLDATASIZE PUSH1 0x4 PUSH2 0x7C8 JUMP JUMPDEST PUSH1 0x0 DUP1 SLOAD PUSH1 0x1 PUSH1 0x1 PUSH1 0xA0 SHL SUB SWAP6 DUP7 AND PUSH1 0x1 PUSH1 0x1 PUSH1 0xA0 SHL SUB NOT SWAP2 DUP3 AND OR SWAP1 SWAP2 SSTORE PUSH1 0x1 SWAP4 SWAP1 SWAP4 SSTORE PUSH1 0x2 SWAP2 SWAP1 SWAP2 SSTORE PUSH1 0x3 DUP1 SLOAD SWAP2 SWAP1 SWAP4 AND SWAP2 AND OR SWAP1 SSTORE JUMP JUMPDEST PUSH2 0x205 PUSH32 0x0 DUP2 JUMP JUMPDEST PUSH1 0x40 MLOAD PUSH1 0x1 PUSH1 0x1 PUSH1 0xA0 SHL SUB SWAP1 SWAP2 AND DUP2 MSTORE PUSH1 0x20 ADD PUSH2 0x102 JUMP JUMPDEST PUSH2 0x240 PUSH2 0x22B CALLDATASIZE PUSH1 0x4 PUSH2 0x8D1 JUMP JUMPDEST PUSH1 0x5 PUSH1 0x20 MSTORE PUSH1 0x0 SWAP1 DUP2 MSTORE PUSH1 0x40 SWAP1 KECCAK256 SLOAD PUSH1 0xFF AND DUP2 JUMP JUMPDEST PUSH1 0x40 MLOAD SWAP1 ISZERO ISZERO DUP2 MSTORE PUSH1 0x20 ADD PUSH2 0x102 JUMP JUMPDEST PUSH2 0xF8 PUSH1 0x2 SLOAD DUP2 JUMP JUMPDEST PUSH1 0x0 SLOAD PUSH2 0x205 SWAP1 PUSH1 0x1 PUSH1 0x1 PUSH1 0xA0 SHL SUB AND DUP2 JUMP JUMPDEST PUSH1 0x3 SLOAD PUSH2 0x205 SWAP1 PUSH1 0x1 PUSH1 0x1 PUSH1 0xA0 SHL SUB AND DUP2 JUMP JUMPDEST PUSH2 0xF8 PUSH2 0x69F JUMP JUMPDEST PUSH1 0x4 SLOAD PUSH2 0x205 SWAP1 PUSH1 0x1 PUSH1 0x1 PUSH1 0xA0 SHL SUB AND DUP2 JUMP JUMPDEST CALLER PUSH1 0x1 PUSH1 0x1 PUSH1 0xA0 SHL SUB PUSH32 0x0 AND EQ PUSH2 0x310 JUMPI PUSH1 0x40 MLOAD PUSH3 0x461BCD PUSH1 0xE5 SHL DUP2 MSTORE PUSH1 0x20 PUSH1 0x4 DUP3 ADD MSTORE PUSH1 0x16 PUSH1 0x24 DUP3 ADD MSTORE PUSH22 0x43616C6C6572206E6F74204169726E6F64652052525 PUSH1 0x54 SHL PUSH1 0x44 DUP3 ADD MSTORE PUSH1 0x64 ADD JUMPDEST PUSH1 0x40 MLOAD DUP1 SWAP2 SUB SWAP1 REVERT JUMPDEST PUSH1 0x0 DUP4 DUP2 MSTORE PUSH1 0x5 PUSH1 0x20 MSTORE PUSH1 0x40 SWAP1 KECCAK256 SLOAD PUSH1 0xFF AND PUSH2 0x365 JUMPI PUSH1 0x40 MLOAD PUSH3 0x461BCD PUSH1 0xE5 SHL DUP2 MSTORE PUSH1 0x20 PUSH1 0x4 DUP3 ADD MSTORE PUSH1 0x14 PUSH1 0x24 DUP3 ADD MSTORE PUSH20 0x2932B8BAB2B9BA1024A2103737BA1035B737BBB7 PUSH1 0x61 SHL PUSH1 0x44 DUP3 ADD MSTORE PUSH1 0x64 ADD PUSH2 0x307 JUMP JUMPDEST PUSH1 0x0 DUP4 DUP2 MSTORE PUSH1 0x5 PUSH1 0x20 MSTORE PUSH1 0x40 DUP2 KECCAK256 DUP1 SLOAD PUSH1 0xFF NOT AND SWAP1 SSTORE PUSH2 0x387 DUP3 DUP5 ADD DUP5 PUSH2 0x811 JUMP JUMPDEST SWAP1 POP DUP4 PUSH32 0x47B5F552F55573AD9B766EF18360830D3E90ECDFBEF4C7BEA49379A0CE64913C DUP3 PUSH1 0x40 MLOAD PUSH2 0x3B9 SWAP2 SWAP1 PUSH2 0xA3A JUMP JUMPDEST PUSH1 0x40 MLOAD DUP1 SWAP2 SUB SWAP1 LOG2 POP POP POP POP JUMP JUMPDEST PUSH1 0x0 DUP1 SLOAD PUSH1 0x2 SLOAD PUSH1 0x3 SLOAD PUSH1 0x40 DUP1 MLOAD PUSH2 0x3175 PUSH1 0xF0 SHL PUSH1 0x20 DUP3 ADD MSTORE PUSH4 0x73697A65 PUSH1 0xE0 SHL DUP2 DUP4 ADD MSTORE PUSH1 0x60 DUP1 DUP3 ADD DUP9 SWAP1 MSTORE DUP3 MLOAD DUP1 DUP4 SUB SWAP1 SWAP2 ADD DUP2 MSTORE PUSH1 0x80 DUP3 ADD SWAP3 DUP4 SWAP1 MSTORE PUSH4 0x6E6BE03F PUSH1 0xE0 SHL SWAP1 SWAP3 MSTORE PUSH1 0x1 PUSH1 0x1 PUSH1 0xA0 SHL SUB PUSH32 0x0 DUP2 AND SWAP6 PUSH4 0x6E6BE03F SWAP6 PUSH2 0x466 SWAP6 SWAP2 DUP4 AND SWAP5 SWAP1 SWAP4 ADDRESS SWAP4 SWAP1 SWAP3 AND SWAP2 DUP4 SWAP2 PUSH4 0x698EA95 PUSH1 0xE1 SHL SWAP2 PUSH1 0x84 ADD PUSH2 0x99B JUMP JUMPDEST PUSH1 0x20 PUSH1 0x40 MLOAD DUP1 DUP4 SUB DUP2 PUSH1 0x0 DUP8 DUP1 EXTCODESIZE ISZERO DUP1 ISZERO PUSH2 0x480 JUMPI PUSH1 0x0 DUP1 REVERT JUMPDEST POP GAS CALL ISZERO DUP1 ISZERO PUSH2 0x494 JUMPI RETURNDATASIZE PUSH1 0x0 DUP1 RETURNDATACOPY RETURNDATASIZE PUSH1 0x0 REVERT JUMPDEST POP POP POP POP PUSH1 0x40 MLOAD RETURNDATASIZE PUSH1 0x1F NOT PUSH1 0x1F DUP3 ADD AND DUP3 ADD DUP1 PUSH1 0x40 MSTORE POP DUP2 ADD SWAP1 PUSH2 0x4B8 SWAP2 SWAP1 PUSH2 0x8E9 JUMP JUMPDEST PUSH1 0x0 DUP2 DUP2 MSTORE PUSH1 0x5 PUSH1 0x20 MSTORE PUSH1 0x40 SWAP1 DUP2 SWAP1 KECCAK256 DUP1 SLOAD PUSH1 0xFF NOT AND PUSH1 0x1 OR SWAP1 SSTORE MLOAD SWAP1 SWAP2 POP DUP2 SWAP1 PUSH32 0x6529DE56040715A55618EE5797CD3BC856B65DED8FEE01E2A24C8481DE9E2AAF SWAP1 PUSH2 0x508 SWAP1 DUP6 DUP2 MSTORE PUSH1 0x20 ADD SWAP1 JUMP JUMPDEST PUSH1 0x40 MLOAD DUP1 SWAP2 SUB SWAP1 LOG2 POP POP JUMP JUMPDEST CALLER PUSH1 0x1 PUSH1 0x1 PUSH1 0xA0 SHL SUB PUSH32 0x0 AND EQ PUSH2 0x585 JUMPI PUSH1 0x40 MLOAD PUSH3 0x461BCD PUSH1 0xE5 SHL DUP2 MSTORE PUSH1 0x20 PUSH1 0x4 DUP3 ADD MSTORE PUSH1 0x16 PUSH1 0x24 DUP3 ADD MSTORE PUSH22 0x43616C6C6572206E6F74204169726E6F64652052525 PUSH1 0x54 SHL PUSH1 0x44 DUP3 ADD MSTORE PUSH1 0x64 ADD PUSH2 0x307 JUMP JUMPDEST PUSH1 0x0 DUP4 DUP2 MSTORE PUSH1 0x5 PUSH1 0x20 MSTORE PUSH1 0x40 SWAP1 KECCAK256 SLOAD PUSH1 0xFF AND PUSH2 0x5DA JUMPI PUSH1 0x40 MLOAD PUSH3 0x461BCD PUSH1 0xE5 SHL DUP2 MSTORE PUSH1 0x20 PUSH1 0x4 DUP3 ADD MSTORE PUSH1 0x14 PUSH1 0x24 DUP3 ADD MSTORE PUSH20 0x2932B8BAB2B9BA1024A2103737BA1035B737BBB7 PUSH1 0x61 SHL PUSH1 0x44 DUP3 ADD MSTORE PUSH1 0x64 ADD PUSH2 0x307 JUMP JUMPDEST PUSH1 0x0 DUP4 DUP2 MSTORE PUSH1 0x5 PUSH1 0x20 MSTORE PUSH1 0x40 DUP2 KECCAK256 DUP1 SLOAD PUSH1 0xFF NOT AND SWAP1 SSTORE PUSH2 0x5FC DUP3 DUP5 ADD DUP5 PUSH2 0x8D1 JUMP JUMPDEST PUSH1 0x0 DUP6 DUP2 MSTORE PUSH1 0x6 PUSH1 0x20 MSTORE PUSH1 0x40 SWAP1 DUP2 SWAP1 KECCAK256 DUP3 SWAP1 SSTORE PUSH1 0x4 DUP1 SLOAD SWAP2 MLOAD PUSH4 0x7018A7AF PUSH1 0xE0 SHL DUP2 MSTORE SWAP1 DUP2 ADD DUP4 SWAP1 MSTORE SWAP2 SWAP3 POP PUSH1 0x1 PUSH1 0x1 PUSH1 0xA0 SHL SUB AND SWAP1 PUSH4 0x7018A7AF SWAP1 PUSH1 0x24 ADD PUSH1 0x0 PUSH1 0x40 MLOAD DUP1 DUP4 SUB DUP2 PUSH1 0x0 DUP8 DUP1 EXTCODESIZE ISZERO DUP1 ISZERO PUSH2 0x655 JUMPI PUSH1 0x0 DUP1 REVERT JUMPDEST POP GAS CALL ISZERO DUP1 ISZERO PUSH2 0x669 JUMPI RETURNDATASIZE PUSH1 0x0 DUP1 RETURNDATACOPY RETURNDATASIZE PUSH1 0x0 REVERT JUMPDEST POP POP POP POP DUP4 PUSH32 0x1CA47BACD454C26163F84EFF4AA514E291BA9FA67AD6029E39567C122BBED30F DUP3 PUSH1 0x40 MLOAD PUSH2 0x3B9 SWAP2 DUP2 MSTORE PUSH1 0x20 ADD SWAP1 JUMP JUMPDEST PUSH1 0x0 DUP1 SLOAD PUSH1 0x1 SLOAD PUSH1 0x3 SLOAD PUSH1 0x40 MLOAD PUSH4 0x6E6BE03F PUSH1 0xE0 SHL DUP2 MSTORE PUSH1 0x1 PUSH1 0x1 PUSH1 0xA0 SHL SUB SWAP4 DUP5 AND PUSH1 0x4 DUP3 ADD MSTORE PUSH1 0x24 DUP2 ADD SWAP3 SWAP1 SWAP3 MSTORE ADDRESS PUSH1 0x44 DUP4 ADD DUP2 SWAP1 MSTORE SWAP1 DUP4 AND PUSH1 0x64 DUP4 ADD MSTORE PUSH1 0x84 DUP3 ADD MSTORE PUSH4 0x1B8C6C85 PUSH1 0xE1 SHL PUSH1 0xA4 DUP3 ADD MSTORE PUSH1 0xE0 PUSH1 0xC4 DUP3 ADD MSTORE PUSH1 0xE4 DUP2 ADD DUP4 SWAP1 MSTORE DUP3 SWAP2 PUSH32 0x0 AND SWAP1 PUSH4 0x6E6BE03F SWAP1 PUSH2 0x104 ADD PUSH1 0x20 PUSH1 0x40 MLOAD DUP1 DUP4 SUB DUP2 PUSH1 0x0 DUP8 DUP1 EXTCODESIZE ISZERO DUP1 ISZERO PUSH2 0x747 JUMPI PUSH1 0x0 DUP1 REVERT JUMPDEST POP GAS CALL ISZERO DUP1 ISZERO PUSH2 0x75B JUMPI RETURNDATASIZE PUSH1 0x0 DUP1 RETURNDATACOPY RETURNDATASIZE PUSH1 0x0 REVERT JUMPDEST POP POP POP POP PUSH1 0x40 MLOAD RETURNDATASIZE PUSH1 0x1F NOT PUSH1 0x1F DUP3 ADD AND DUP3 ADD DUP1 PUSH1 0x40 MSTORE POP DUP2 ADD SWAP1 PUSH2 0x77F SWAP2 SWAP1 PUSH2 0x8E9 JUMP JUMPDEST PUSH1 0x0 DUP2 DUP2 MSTORE PUSH1 0x5 PUSH1 0x20 MSTORE PUSH1 0x40 DUP1 DUP3 KECCAK256 DUP1 SLOAD PUSH1 0xFF NOT AND PUSH1 0x1 OR SWAP1 SSTORE MLOAD SWAP2 SWAP3 POP DUP3 SWAP2 PUSH32 0xCBA2DA2F3C0C732A104019A3104936397DDE7343964C1518CEB760052E4537B1 SWAP2 SWAP1 LOG2 SWAP2 SWAP1 POP JUMP JUMPDEST PUSH1 0x0 DUP1 PUSH1 0x0 DUP1 PUSH1 0x80 DUP6 DUP8 SUB SLT ISZERO PUSH2 0x7DD JUMPI DUP4 DUP5 REVERT JUMPDEST DUP5 CALLDATALOAD PUSH2 0x7E8 DUP2 PUSH2 0xA94 JUMP JUMPDEST SWAP4 POP PUSH1 0x20 DUP6 ADD CALLDATALOAD SWAP3 POP PUSH1 0x40 DUP6 ADD CALLDATALOAD SWAP2 POP PUSH1 0x60 DUP6 ADD CALLDATALOAD PUSH2 0x806 DUP2 PUSH2 0xA94 JUMP JUMPDEST SWAP4 SWAP7 SWAP3 SWAP6 POP SWAP1 SWAP4 POP POP JUMP JUMPDEST PUSH1 0x0 PUSH1 0x20 DUP1 DUP4 DUP6 SUB SLT ISZERO PUSH2 0x823 JUMPI DUP2 DUP3 REVERT JUMPDEST DUP3 CALLDATALOAD PUSH8 0xFFFFFFFFFFFFFFFF DUP1 DUP3 GT ISZERO PUSH2 0x83A JUMPI DUP4 DUP5 REVERT JUMPDEST DUP2 DUP6 ADD SWAP2 POP DUP6 PUSH1 0x1F DUP4 ADD SLT PUSH2 0x84D JUMPI DUP4 DUP5 REVERT JUMPDEST DUP2 CALLDATALOAD DUP2 DUP2 GT ISZERO PUSH2 0x85F JUMPI PUSH2 0x85F PUSH2 0xA7E JUMP JUMPDEST DUP1 PUSH1 0x5 SHL PUSH1 0x40 MLOAD PUSH1 0x1F NOT PUSH1 0x3F DUP4 ADD AND DUP2 ADD DUP2 DUP2 LT DUP6 DUP3 GT OR ISZERO PUSH2 0x884 JUMPI PUSH2 0x884 PUSH2 0xA7E JUMP JUMPDEST PUSH1 0x40 MSTORE DUP3 DUP2 MSTORE DUP6 DUP2 ADD SWAP4 POP DUP5 DUP7 ADD DUP3 DUP7 ADD DUP8 ADD DUP11 LT ISZERO PUSH2 0x8A2 JUMPI DUP8 DUP9 REVERT JUMPDEST DUP8 SWAP6 POP JUMPDEST DUP4 DUP7 LT ISZERO PUSH2 0x8C4 JUMPI DUP1 CALLDATALOAD DUP6 MSTORE PUSH1 0x1 SWAP6 SWAP1 SWAP6 ADD SWAP5 SWAP4 DUP7 ADD SWAP4 DUP7 ADD PUSH2 0x8A6 JUMP JUMPDEST POP SWAP9 SWAP8 POP POP POP POP POP POP POP POP JUMP JUMPDEST PUSH1 0x0 PUSH1 0x20 DUP3 DUP5 SUB SLT ISZERO PUSH2 0x8E2 JUMPI DUP1 DUP2 REVERT JUMPDEST POP CALLDATALOAD SWAP2 SWAP1 POP JUMP JUMPDEST PUSH1 0x0 PUSH1 0x20 DUP3 DUP5 SUB SLT ISZERO PUSH2 0x8FA JUMPI DUP1 DUP2 REVERT JUMPDEST POP MLOAD SWAP2 SWAP1 POP JUMP JUMPDEST PUSH1 0x0 DUP1 PUSH1 0x0 PUSH1 0x40 DUP5 DUP7 SUB SLT ISZERO PUSH2 0x915 JUMPI DUP3 DUP4 REVERT JUMPDEST DUP4 CALLDATALOAD SWAP3 POP PUSH1 0x20 DUP5 ADD CALLDATALOAD PUSH8 0xFFFFFFFFFFFFFFFF DUP1 DUP3 GT ISZERO PUSH2 0x933 JUMPI DUP4 DUP5 REVERT JUMPDEST DUP2 DUP7 ADD SWAP2 POP DUP7 PUSH1 0x1F DUP4 ADD SLT PUSH2 0x946 JUMPI DUP4 DUP5 REVERT JUMPDEST DUP2 CALLDATALOAD DUP2 DUP2 GT ISZERO PUSH2 0x954 JUMPI DUP5 DUP6 REVERT JUMPDEST DUP8 PUSH1 0x20 DUP3 DUP6 ADD ADD GT ISZERO PUSH2 0x965 JUMPI DUP5 DUP6 REVERT JUMPDEST PUSH1 0x20 DUP4 ADD SWAP5 POP DUP1 SWAP4 POP POP POP POP SWAP3 POP SWAP3 POP SWAP3 JUMP JUMPDEST PUSH1 0x0 PUSH1 0x20 DUP3 DUP5 SUB SLT ISZERO PUSH2 0x989 JUMPI DUP1 DUP2 REVERT JUMPDEST DUP2 CALLDATALOAD PUSH2 0x994 DUP2 PUSH2 0xA94 JUMP JUMPDEST SWAP4 SWAP3 POP POP POP JUMP JUMPDEST PUSH1 0x1 PUSH1 0x1 PUSH1 0xA0 SHL SUB DUP9 DUP2 AND DUP3 MSTORE PUSH1 0x20 DUP1 DUP4 ADD DUP10 SWAP1 MSTORE DUP8 DUP3 AND PUSH1 0x40 DUP5 ADD MSTORE DUP7 DUP3 AND PUSH1 0x60 DUP5 ADD MSTORE SWAP1 DUP6 AND PUSH1 0x80 DUP4 ADD MSTORE PUSH1 0x1 PUSH1 0x1 PUSH1 0xE0 SHL SUB NOT DUP5 AND PUSH1 0xA0 DUP4 ADD MSTORE PUSH1 0xE0 PUSH1 0xC0 DUP4 ADD DUP2 SWAP1 MSTORE DUP4 MLOAD SWAP1 DUP4 ADD DUP2 SWAP1 MSTORE PUSH1 0x0 SWAP2 DUP3 JUMPDEST DUP3 DUP2 LT ISZERO PUSH2 0xA0B JUMPI DUP6 DUP2 ADD DUP3 ADD MLOAD DUP6 DUP3 ADD PUSH2 0x100 ADD MSTORE DUP2 ADD PUSH2 0x9EE JUMP JUMPDEST DUP3 DUP2 GT ISZERO PUSH2 0xA1D JUMPI DUP4 PUSH2 0x100 DUP5 DUP8 ADD ADD MSTORE JUMPDEST POP POP PUSH1 0x1F ADD PUSH1 0x1F NOT AND SWAP2 SWAP1 SWAP2 ADD PUSH2 0x100 ADD SWAP9 SWAP8 POP POP POP POP POP POP POP POP JUMP JUMPDEST PUSH1 0x20 DUP1 DUP3 MSTORE DUP3 MLOAD DUP3 DUP3 ADD DUP2 SWAP1 MSTORE PUSH1 0x0 SWAP2 SWAP1 DUP5 DUP3 ADD SWAP1 PUSH1 0x40 DUP6 ADD SWAP1 DUP5 JUMPDEST DUP2 DUP2 LT ISZERO PUSH2 0xA72 JUMPI DUP4 MLOAD DUP4 MSTORE SWAP3 DUP5 ADD SWAP3 SWAP2 DUP5 ADD SWAP2 PUSH1 0x1 ADD PUSH2 0xA56 JUMP JUMPDEST POP SWAP1 SWAP7 SWAP6 POP POP POP POP POP POP JUMP JUMPDEST PUSH4 0x4E487B71 PUSH1 0xE0 SHL PUSH1 0x0 MSTORE PUSH1 0x41 PUSH1 0x4 MSTORE PUSH1 0x24 PUSH1 0x0 REVERT JUMPDEST PUSH1 0x1 PUSH1 0x1 PUSH1 0xA0 SHL SUB DUP2 AND DUP2 EQ PUSH2 0xAA9 JUMPI PUSH1 0x0 DUP1 REVERT JUMPDEST POP JUMP INVALID LOG2 PUSH5 0x6970667358 0x22 SLT KECCAK256 0x1F 0xCD PUSH2 0x7B5D EXTCODESIZE DUP3 SWAP7 0xA7 CREATE2 0xAE 0x4A DIV 0xFC 0xD6 MSIZE PUSH26 0x68ECB9B5C1B65F4BD404EAF8A3795664736F6C63430008040033 "},"methodIdentifiers":{"airnode()":"a36ff4d8","airnodeRrp()":"71bab666","endpointIdUint256()":"07b9fc57","endpointIdUint256Array()":"a19954af","expectingRequestWithIdToBeFulfilled(bytes32)":"851244f7","fulfillUint256(bytes32,bytes)":"3718d90a","fulfillUint256Array(bytes32,bytes)":"0d31d52a","makeRequestUint256()":"dea12bad","makeRequestUint256Array(uint256)":"2b7d3d22","requestIdWinningNumber(bytes32)":"204288ca","roulette()":"e713f127","setRequestParameters(address,bytes32,bytes32,address)":"5675e4e4","setRoulette(address)":"2d0a2345","sponsorWallet()":"bf90fb4e"}}}}}