{"contracts/Roulette.sol":{"Roulette":{"abi":[{"inputs":[{"internalType":"address","name":"stakerContractAddress","type":"address"}],"stateMutability":"nonpayable","type":"constructor"},{"inputs":[{"internalType":"uint256","name":"_from","type":"uint256"},{"internalType":"uint256","name":"_to","type":"uint256"}],"name":"InvalidRange","type":"error"},{"anonymous":false,"inputs":[{"indexed":true,"internalType":"address","name":"player","type":"address"},{"indexed":false,"internalType":"uint256","name":"betSize","type":"uint256"},{"indexed":false,"internalType":"uint256","name":"betNumber","type":"uint256"}],"name":"Bet","type":"event"},{"anonymous":false,"inputs":[{"indexed":false,"internalType":"bytes32","name":"requestId","type":"bytes32"}],"name":"GameStart","type":"event"},{"anonymous":false,"inputs":[{"indexed":false,"internalType":"address","name":"account","type":"address"}],"name":"Paused","type":"event"},{"anonymous":false,"inputs":[{"indexed":true,"internalType":"address","name":"winner","type":"address"},{"indexed":false,"internalType":"uint256","name":"payout","type":"uint256"}],"name":"Payout","type":"event"},{"anonymous":false,"inputs":[{"indexed":true,"internalType":"address","name":"player","type":"address"},{"indexed":false,"internalType":"uint256","name":"betSize","type":"uint256"},{"indexed":false,"internalType":"uint256","name":"betNumber","type":"uint256"},{"indexed":false,"internalType":"uint256","name":"winningNumber","type":"uint256"}],"name":"Play","type":"event"},{"anonymous":false,"inputs":[{"indexed":false,"internalType":"address","name":"account","type":"address"}],"name":"Unpaused","type":"event"},{"inputs":[],"name":"airnode","outputs":[{"internalType":"address","name":"","type":"address"}],"stateMutability":"view","type":"function"},{"inputs":[],"name":"balanceForBacking","outputs":[{"internalType":"uint256","name":"","type":"uint256"}],"stateMutability":"view","type":"function"},{"inputs":[{"internalType":"uint256","name":"number","type":"uint256"}],"name":"bet","outputs":[],"stateMutability":"payable","type":"function"},{"inputs":[],"name":"deposit","outputs":[],"stateMutability":"payable","type":"function"},{"inputs":[],"name":"endpointIdUint256","outputs":[{"internalType":"bytes32","name":"","type":"bytes32"}],"stateMutability":"view","type":"function"},{"inputs":[{"internalType":"uint256","name":"randomNumber","type":"uint256"}],"name":"executeResult","outputs":[],"stateMutability":"nonpayable","type":"function"},{"inputs":[{"internalType":"address","name":"player","type":"address"}],"name":"getPlayerInfo","outputs":[],"stateMutability":"view","type":"function"},{"inputs":[],"name":"maxBet","outputs":[{"internalType":"uint256","name":"","type":"uint256"}],"stateMutability":"view","type":"function"},{"inputs":[],"name":"oraclizeFeeEstimate","outputs":[{"internalType":"uint256","name":"","type":"uint256"}],"stateMutability":"pure","type":"function"},{"inputs":[],"name":"paused","outputs":[{"internalType":"bool","name":"","type":"bool"}],"stateMutability":"view","type":"function"},{"inputs":[],"name":"play","outputs":[],"stateMutability":"nonpayable","type":"function"},{"inputs":[{"internalType":"uint256","name":"_rng","type":"uint256"},{"internalType":"uint256","name":"_from","type":"uint256"},{"internalType":"uint256","name":"_to","type":"uint256"}],"name":"rollFromToInclusive","outputs":[{"internalType":"uint256","name":"","type":"uint256"}],"stateMutability":"pure","type":"function"},{"inputs":[],"name":"staker","outputs":[{"internalType":"contract Staker","name":"","type":"address"}],"stateMutability":"view","type":"function"},{"inputs":[{"internalType":"uint256","name":"ethAmount","type":"uint256"}],"name":"withdraw","outputs":[],"stateMutability":"nonpayable","type":"function"},{"stateMutability":"payable","type":"receive"}],"evm":{"bytecode":{"linkReferences":{},"object":"608060405234801561001057600080fd5b50604051610b07380380610b0783398101604081905261002f9161005e565b6000805460ff19169055600280546001600160a01b0319166001600160a01b039290921691909117905561008c565b60006020828403121561006f578081fd5b81516001600160a01b0381168114610085578182fd5b9392505050565b610a6c8061009b6000396000f3fe6080604052600436106100e15760003560e01c80637365870b1161007f578063a36ff4d811610059578063a36ff4d814610244578063b855b02814610264578063d0e30db014610284578063ea3f73ad1461028c57600080fd5b80637365870b1461020657806393e84cd9146102195780639a26c0c41461022e57600080fd5b806359328401116100bb578063593284011461015d5780635c975abb1461018b5780635ebaf1db146101ae5780637018a7af146101e657600080fd5b806307b9fc57146100fd5780632e1a7d4d146101265780632e5b21681461014857600080fd5b366100f8576001546100f390346102a5565b600155005b600080fd5b34801561010957600080fd5b5061011360045481565b6040519081526020015b60405180910390f35b34801561013257600080fd5b50610146610141366004610936565b6102b8565b005b34801561015457600080fd5b50610113610394565b34801561016957600080fd5b506101466101783660046108f7565b6001600160a01b03166000526005602052565b34801561019757600080fd5b5060005460ff16604051901515815260200161011d565b3480156101ba57600080fd5b506002546101ce906001600160a01b031681565b6040516001600160a01b03909116815260200161011d565b3480156101f257600080fd5b50610146610201366004610936565b6103ba565b610146610214366004610936565b61048b565b34801561022557600080fd5b50610146610594565b34801561023a57600080fd5b5061011360015481565b34801561025057600080fd5b506003546101ce906001600160a01b031681565b34801561027057600080fd5b5061011361027f36600461094e565b61065f565b6101466106b5565b34801561029857600080fd5b50659a9d359ca000610113565b60006102b18284610979565b9392505050565b478111156103185760405162461bcd60e51b815260206004820152602260248201527f43616e206e6f74207769746864726177206d6f7265207468616e2062616c616e604482015261636560f01b60648201526084015b60405180910390fd5b6001548111156103815760405162461bcd60e51b815260206004820152602e60248201527f43616e206e6f74207769746864726177206d6f7265207468616e2062616c616e60448201526d636520666f72206261636b696e6760901b606482015260840161030f565b60015461038e90826106c7565b60015550565b6000659a9d359ca0006001546103ab9060c86106d3565b6103b59190610979565b905090565b60006103c9826000602461065f565b336000908152600560209081526040918290208054600182015460028301548551918252938101939093529282018490529293506001600160a01b03909116907ff8c0ba48b6d4587529590935d240b8f6c80e8f0efb1bf6f802c36e24a92f2e2e9060600160405180910390a26001808201549054610447916102a5565b600155600281015482141561048657805460018201546001600160a01b03909116906000906104779060246106df565b905061048382826106eb565b50505b505050565b6104936108af565b61049b610394565b3411156104f95760405162461bcd60e51b815260206004820152602660248201527f42657420616d6f756e742063616e206e6f7420657863656564206d6178206265604482015265742073697a6560d01b606482015260840161030f565b6040805160608101825233808252346020808401828152848601878152600085815260058452879020955186546001600160a01b0319166001600160a01b03909116178655905160018601555160029094019390935583518181529283018590529290917ff41b7910e085d0992d604fd470931728fd77cc8eb504d99e50e51a0a30fcfd1a910160405180910390a2610590610594565b5050565b6002546040805163dea12bad60e01b815290516000926001600160a01b03169163dea12bad91600480830192602092919082900301818787803b1580156105da57600080fd5b505af11580156105ee573d6000803e3d6000fd5b505050506040513d601f19601f82011682018060405250810190610612919061091e565b90507f15798af791e860e2bf7c3d5ca037dfd7dd84743253b05194dbbb5059a3469a338160405161064591815260200190565b60405180910390a133600090815260066020526040902055565b60008161066b816109db565b92505081831061069857604051632457cde760e01b8152600481018490526024810183905260440161030f565b826106a383866109f6565b6106ad9190610979565b949350505050565b6001546106c290346102a5565b600155565b60006102b182846109c4565b60006102b18284610991565b60006102b182846109a5565b600081116107475760405162461bcd60e51b815260206004820152602360248201527f5061796f757420616d6f756e742073686f756c64206265206d6f72652074686160448201526206e20360ec1b606482015260840161030f565b478111156107b65760405162461bcd60e51b815260206004820152603660248201527f5061796f757420616d6f756e742073686f756c64206e6f74206265206d6f7265604482015275207468616e20636f6e74726163742062616c616e636560501b606482015260840161030f565b6001546107c390826106c7565b6001556040516000906001600160a01b0384169083908381818185875af1925050503d8060008114610811576040519150601f19603f3d011682016040523d82523d6000602084013e610816565b606091505b50509050806108675760405162461bcd60e51b815260206004820152601f60248201527f436f756c64206e6f74207061796f757420746f207468652077696e6e65722e00604482015260640161030f565b826001600160a01b03167f5afeca38b2064c23a692c4cf353015d80ab3ecc417b4f893f372690c11fbd9a6836040516108a291815260200190565b60405180910390a2505050565b60005460ff16156108f55760405162461bcd60e51b815260206004820152601060248201526f14185d5cd8589b194e881c185d5cd95960821b604482015260640161030f565b565b600060208284031215610908578081fd5b81356001600160a01b03811681146102b1578182fd5b60006020828403121561092f578081fd5b5051919050565b600060208284031215610947578081fd5b5035919050565b600080600060608486031215610962578182fd5b505081359360208301359350604090920135919050565b6000821982111561098c5761098c610a0a565b500190565b6000826109a0576109a0610a20565b500490565b60008160001904831182151516156109bf576109bf610a0a565b500290565b6000828210156109d6576109d6610a0a565b500390565b60006000198214156109ef576109ef610a0a565b5060010190565b600082610a0557610a05610a20565b500690565b634e487b7160e01b600052601160045260246000fd5b634e487b7160e01b600052601260045260246000fdfea2646970667358221220af443433bff664d88d52d150081e691b7f4ff9bd3da988b622296f5c20785f2a64736f6c63430008040033","opcodes":"PUSH1 0x80 PUSH1 0x40 MSTORE CALLVALUE DUP1 ISZERO PUSH2 0x10 JUMPI PUSH1 0x0 DUP1 REVERT JUMPDEST POP PUSH1 0x40 MLOAD PUSH2 0xB07 CODESIZE SUB DUP1 PUSH2 0xB07 DUP4 CODECOPY DUP2 ADD PUSH1 0x40 DUP2 SWAP1 MSTORE PUSH2 0x2F SWAP2 PUSH2 0x5E JUMP JUMPDEST PUSH1 0x0 DUP1 SLOAD PUSH1 0xFF NOT AND SWAP1 SSTORE PUSH1 0x2 DUP1 SLOAD PUSH1 0x1 PUSH1 0x1 PUSH1 0xA0 SHL SUB NOT AND PUSH1 0x1 PUSH1 0x1 PUSH1 0xA0 SHL SUB SWAP3 SWAP1 SWAP3 AND SWAP2 SWAP1 SWAP2 OR SWAP1 SSTORE PUSH2 0x8C JUMP JUMPDEST PUSH1 0x0 PUSH1 0x20 DUP3 DUP5 SUB SLT ISZERO PUSH2 0x6F JUMPI DUP1 DUP2 REVERT JUMPDEST DUP2 MLOAD PUSH1 0x1 PUSH1 0x1 PUSH1 0xA0 SHL SUB DUP2 AND DUP2 EQ PUSH2 0x85 JUMPI DUP2 DUP3 REVERT JUMPDEST SWAP4 SWAP3 POP POP POP JUMP JUMPDEST PUSH2 0xA6C DUP1 PUSH2 0x9B PUSH1 0x0 CODECOPY PUSH1 0x0 RETURN INVALID PUSH1 0x80 PUSH1 0x40 MSTORE PUSH1 0x4 CALLDATASIZE LT PUSH2 0xE1 JUMPI PUSH1 0x0 CALLDATALOAD PUSH1 0xE0 SHR DUP1 PUSH4 0x7365870B GT PUSH2 0x7F JUMPI DUP1 PUSH4 0xA36FF4D8 GT PUSH2 0x59 JUMPI DUP1 PUSH4 0xA36FF4D8 EQ PUSH2 0x244 JUMPI DUP1 PUSH4 0xB855B028 EQ PUSH2 0x264 JUMPI DUP1 PUSH4 0xD0E30DB0 EQ PUSH2 0x284 JUMPI DUP1 PUSH4 0xEA3F73AD EQ PUSH2 0x28C JUMPI PUSH1 0x0 DUP1 REVERT JUMPDEST DUP1 PUSH4 0x7365870B EQ PUSH2 0x206 JUMPI DUP1 PUSH4 0x93E84CD9 EQ PUSH2 0x219 JUMPI DUP1 PUSH4 0x9A26C0C4 EQ PUSH2 0x22E JUMPI PUSH1 0x0 DUP1 REVERT JUMPDEST DUP1 PUSH4 0x59328401 GT PUSH2 0xBB JUMPI DUP1 PUSH4 0x59328401 EQ PUSH2 0x15D JUMPI DUP1 PUSH4 0x5C975ABB EQ PUSH2 0x18B JUMPI DUP1 PUSH4 0x5EBAF1DB EQ PUSH2 0x1AE JUMPI DUP1 PUSH4 0x7018A7AF EQ PUSH2 0x1E6 JUMPI PUSH1 0x0 DUP1 REVERT JUMPDEST DUP1 PUSH4 0x7B9FC57 EQ PUSH2 0xFD JUMPI DUP1 PUSH4 0x2E1A7D4D EQ PUSH2 0x126 JUMPI DUP1 PUSH4 0x2E5B2168 EQ PUSH2 0x148 JUMPI PUSH1 0x0 DUP1 REVERT JUMPDEST CALLDATASIZE PUSH2 0xF8 JUMPI PUSH1 0x1 SLOAD PUSH2 0xF3 SWAP1 CALLVALUE PUSH2 0x2A5 JUMP JUMPDEST PUSH1 0x1 SSTORE STOP JUMPDEST PUSH1 0x0 DUP1 REVERT JUMPDEST CALLVALUE DUP1 ISZERO PUSH2 0x109 JUMPI PUSH1 0x0 DUP1 REVERT JUMPDEST POP PUSH2 0x113 PUSH1 0x4 SLOAD DUP2 JUMP JUMPDEST PUSH1 0x40 MLOAD SWAP1 DUP2 MSTORE PUSH1 0x20 ADD JUMPDEST PUSH1 0x40 MLOAD DUP1 SWAP2 SUB SWAP1 RETURN JUMPDEST CALLVALUE DUP1 ISZERO PUSH2 0x132 JUMPI PUSH1 0x0 DUP1 REVERT JUMPDEST POP PUSH2 0x146 PUSH2 0x141 CALLDATASIZE PUSH1 0x4 PUSH2 0x936 JUMP JUMPDEST PUSH2 0x2B8 JUMP JUMPDEST STOP JUMPDEST CALLVALUE DUP1 ISZERO PUSH2 0x154 JUMPI PUSH1 0x0 DUP1 REVERT JUMPDEST POP PUSH2 0x113 PUSH2 0x394 JUMP JUMPDEST CALLVALUE DUP1 ISZERO PUSH2 0x169 JUMPI PUSH1 0x0 DUP1 REVERT JUMPDEST POP PUSH2 0x146 PUSH2 0x178 CALLDATASIZE PUSH1 0x4 PUSH2 0x8F7 JUMP JUMPDEST PUSH1 0x1 PUSH1 0x1 PUSH1 0xA0 SHL SUB AND PUSH1 0x0 MSTORE PUSH1 0x5 PUSH1 0x20 MSTORE JUMP JUMPDEST CALLVALUE DUP1 ISZERO PUSH2 0x197 JUMPI PUSH1 0x0 DUP1 REVERT JUMPDEST POP PUSH1 0x0 SLOAD PUSH1 0xFF AND PUSH1 0x40 MLOAD SWAP1 ISZERO ISZERO DUP2 MSTORE PUSH1 0x20 ADD PUSH2 0x11D JUMP JUMPDEST CALLVALUE DUP1 ISZERO PUSH2 0x1BA JUMPI PUSH1 0x0 DUP1 REVERT JUMPDEST POP PUSH1 0x2 SLOAD PUSH2 0x1CE SWAP1 PUSH1 0x1 PUSH1 0x1 PUSH1 0xA0 SHL SUB AND DUP2 JUMP JUMPDEST PUSH1 0x40 MLOAD PUSH1 0x1 PUSH1 0x1 PUSH1 0xA0 SHL SUB SWAP1 SWAP2 AND DUP2 MSTORE PUSH1 0x20 ADD PUSH2 0x11D JUMP JUMPDEST CALLVALUE DUP1 ISZERO PUSH2 0x1F2 JUMPI PUSH1 0x0 DUP1 REVERT JUMPDEST POP PUSH2 0x146 PUSH2 0x201 CALLDATASIZE PUSH1 0x4 PUSH2 0x936 JUMP JUMPDEST PUSH2 0x3BA JUMP JUMPDEST PUSH2 0x146 PUSH2 0x214 CALLDATASIZE PUSH1 0x4 PUSH2 0x936 JUMP JUMPDEST PUSH2 0x48B JUMP JUMPDEST CALLVALUE DUP1 ISZERO PUSH2 0x225 JUMPI PUSH1 0x0 DUP1 REVERT JUMPDEST POP PUSH2 0x146 PUSH2 0x594 JUMP JUMPDEST CALLVALUE DUP1 ISZERO PUSH2 0x23A JUMPI PUSH1 0x0 DUP1 REVERT JUMPDEST POP PUSH2 0x113 PUSH1 0x1 SLOAD DUP2 JUMP JUMPDEST CALLVALUE DUP1 ISZERO PUSH2 0x250 JUMPI PUSH1 0x0 DUP1 REVERT JUMPDEST POP PUSH1 0x3 SLOAD PUSH2 0x1CE SWAP1 PUSH1 0x1 PUSH1 0x1 PUSH1 0xA0 SHL SUB AND DUP2 JUMP JUMPDEST CALLVALUE DUP1 ISZERO PUSH2 0x270 JUMPI PUSH1 0x0 DUP1 REVERT JUMPDEST POP PUSH2 0x113 PUSH2 0x27F CALLDATASIZE PUSH1 0x4 PUSH2 0x94E JUMP JUMPDEST PUSH2 0x65F JUMP JUMPDEST PUSH2 0x146 PUSH2 0x6B5 JUMP JUMPDEST CALLVALUE DUP1 ISZERO PUSH2 0x298 JUMPI PUSH1 0x0 DUP1 REVERT JUMPDEST POP PUSH6 0x9A9D359CA000 PUSH2 0x113 JUMP JUMPDEST PUSH1 0x0 PUSH2 0x2B1 DUP3 DUP5 PUSH2 0x979 JUMP JUMPDEST SWAP4 SWAP3 POP POP POP JUMP JUMPDEST SELFBALANCE DUP2 GT ISZERO PUSH2 0x318 JUMPI PUSH1 0x40 MLOAD PUSH3 0x461BCD PUSH1 0xE5 SHL DUP2 MSTORE PUSH1 0x20 PUSH1 0x4 DUP3 ADD MSTORE PUSH1 0x22 PUSH1 0x24 DUP3 ADD MSTORE PUSH32 0x43616E206E6F74207769746864726177206D6F7265207468616E2062616C616E PUSH1 0x44 DUP3 ADD MSTORE PUSH2 0x6365 PUSH1 0xF0 SHL PUSH1 0x64 DUP3 ADD MSTORE PUSH1 0x84 ADD JUMPDEST PUSH1 0x40 MLOAD DUP1 SWAP2 SUB SWAP1 REVERT JUMPDEST PUSH1 0x1 SLOAD DUP2 GT ISZERO PUSH2 0x381 JUMPI PUSH1 0x40 MLOAD PUSH3 0x461BCD PUSH1 0xE5 SHL DUP2 MSTORE PUSH1 0x20 PUSH1 0x4 DUP3 ADD MSTORE PUSH1 0x2E PUSH1 0x24 DUP3 ADD MSTORE PUSH32 0x43616E206E6F74207769746864726177206D6F7265207468616E2062616C616E PUSH1 0x44 DUP3 ADD MSTORE PUSH14 0x636520666F72206261636B696E67 PUSH1 0x90 SHL PUSH1 0x64 DUP3 ADD MSTORE PUSH1 0x84 ADD PUSH2 0x30F JUMP JUMPDEST PUSH1 0x1 SLOAD PUSH2 0x38E SWAP1 DUP3 PUSH2 0x6C7 JUMP JUMPDEST PUSH1 0x1 SSTORE POP JUMP JUMPDEST PUSH1 0x0 PUSH6 0x9A9D359CA000 PUSH1 0x1 SLOAD PUSH2 0x3AB SWAP1 PUSH1 0xC8 PUSH2 0x6D3 JUMP JUMPDEST PUSH2 0x3B5 SWAP2 SWAP1 PUSH2 0x979 JUMP JUMPDEST SWAP1 POP SWAP1 JUMP JUMPDEST PUSH1 0x0 PUSH2 0x3C9 DUP3 PUSH1 0x0 PUSH1 0x24 PUSH2 0x65F JUMP JUMPDEST CALLER PUSH1 0x0 SWAP1 DUP2 MSTORE PUSH1 0x5 PUSH1 0x20 SWAP1 DUP2 MSTORE PUSH1 0x40 SWAP2 DUP3 SWAP1 KECCAK256 DUP1 SLOAD PUSH1 0x1 DUP3 ADD SLOAD PUSH1 0x2 DUP4 ADD SLOAD DUP6 MLOAD SWAP2 DUP3 MSTORE SWAP4 DUP2 ADD SWAP4 SWAP1 SWAP4 MSTORE SWAP3 DUP3 ADD DUP5 SWAP1 MSTORE SWAP3 SWAP4 POP PUSH1 0x1 PUSH1 0x1 PUSH1 0xA0 SHL SUB SWAP1 SWAP2 AND SWAP1 PUSH32 0xF8C0BA48B6D4587529590935D240B8F6C80E8F0EFB1BF6F802C36E24A92F2E2E SWAP1 PUSH1 0x60 ADD PUSH1 0x40 MLOAD DUP1 SWAP2 SUB SWAP1 LOG2 PUSH1 0x1 DUP1 DUP3 ADD SLOAD SWAP1 SLOAD PUSH2 0x447 SWAP2 PUSH2 0x2A5 JUMP JUMPDEST PUSH1 0x1 SSTORE PUSH1 0x2 DUP2 ADD SLOAD DUP3 EQ ISZERO PUSH2 0x486 JUMPI DUP1 SLOAD PUSH1 0x1 DUP3 ADD SLOAD PUSH1 0x1 PUSH1 0x1 PUSH1 0xA0 SHL SUB SWAP1 SWAP2 AND SWAP1 PUSH1 0x0 SWAP1 PUSH2 0x477 SWAP1 PUSH1 0x24 PUSH2 0x6DF JUMP JUMPDEST SWAP1 POP PUSH2 0x483 DUP3 DUP3 PUSH2 0x6EB JUMP JUMPDEST POP POP JUMPDEST POP POP POP JUMP JUMPDEST PUSH2 0x493 PUSH2 0x8AF JUMP JUMPDEST PUSH2 0x49B PUSH2 0x394 JUMP JUMPDEST CALLVALUE GT ISZERO PUSH2 0x4F9 JUMPI PUSH1 0x40 MLOAD PUSH3 0x461BCD PUSH1 0xE5 SHL DUP2 MSTORE PUSH1 0x20 PUSH1 0x4 DUP3 ADD MSTORE PUSH1 0x26 PUSH1 0x24 DUP3 ADD MSTORE PUSH32 0x42657420616D6F756E742063616E206E6F7420657863656564206D6178206265 PUSH1 0x44 DUP3 ADD MSTORE PUSH6 0x742073697A65 PUSH1 0xD0 SHL PUSH1 0x64 DUP3 ADD MSTORE PUSH1 0x84 ADD PUSH2 0x30F JUMP JUMPDEST PUSH1 0x40 DUP1 MLOAD PUSH1 0x60 DUP2 ADD DUP3 MSTORE CALLER DUP1 DUP3 MSTORE CALLVALUE PUSH1 0x20 DUP1 DUP5 ADD DUP3 DUP2 MSTORE DUP5 DUP7 ADD DUP8 DUP2 MSTORE PUSH1 0x0 DUP6 DUP2 MSTORE PUSH1 0x5 DUP5 MSTORE DUP8 SWAP1 KECCAK256 SWAP6 MLOAD DUP7 SLOAD PUSH1 0x1 PUSH1 0x1 PUSH1 0xA0 SHL SUB NOT AND PUSH1 0x1 PUSH1 0x1 PUSH1 0xA0 SHL SUB SWAP1 SWAP2 AND OR DUP7 SSTORE SWAP1 MLOAD PUSH1 0x1 DUP7 ADD SSTORE MLOAD PUSH1 0x2 SWAP1 SWAP5 ADD SWAP4 SWAP1 SWAP4 SSTORE DUP4 MLOAD DUP2 DUP2 MSTORE SWAP3 DUP4 ADD DUP6 SWAP1 MSTORE SWAP3 SWAP1 SWAP2 PUSH32 0xF41B7910E085D0992D604FD470931728FD77CC8EB504D99E50E51A0A30FCFD1A SWAP2 ADD PUSH1 0x40 MLOAD DUP1 SWAP2 SUB SWAP1 LOG2 PUSH2 0x590 PUSH2 0x594 JUMP JUMPDEST POP POP JUMP JUMPDEST PUSH1 0x2 SLOAD PUSH1 0x40 DUP1 MLOAD PUSH4 0xDEA12BAD PUSH1 0xE0 SHL DUP2 MSTORE SWAP1 MLOAD PUSH1 0x0 SWAP3 PUSH1 0x1 PUSH1 0x1 PUSH1 0xA0 SHL SUB AND SWAP2 PUSH4 0xDEA12BAD SWAP2 PUSH1 0x4 DUP1 DUP4 ADD SWAP3 PUSH1 0x20 SWAP3 SWAP2 SWAP1 DUP3 SWAP1 SUB ADD DUP2 DUP8 DUP8 DUP1 EXTCODESIZE ISZERO DUP1 ISZERO PUSH2 0x5DA JUMPI PUSH1 0x0 DUP1 REVERT JUMPDEST POP GAS CALL ISZERO DUP1 ISZERO PUSH2 0x5EE JUMPI RETURNDATASIZE PUSH1 0x0 DUP1 RETURNDATACOPY RETURNDATASIZE PUSH1 0x0 REVERT JUMPDEST POP POP POP POP PUSH1 0x40 MLOAD RETURNDATASIZE PUSH1 0x1F NOT PUSH1 0x1F DUP3 ADD AND DUP3 ADD DUP1 PUSH1 0x40 MSTORE POP DUP2 ADD SWAP1 PUSH2 0x612 SWAP2 SWAP1 PUSH2 0x91E JUMP JUMPDEST SWAP1 POP PUSH32 0x15798AF791E860E2BF7C3D5CA037DFD7DD84743253B05194DBBB5059A3469A33 DUP2 PUSH1 0x40 MLOAD PUSH2 0x645 SWAP2 DUP2 MSTORE PUSH1 0x20 ADD SWAP1 JUMP JUMPDEST PUSH1 0x40 MLOAD DUP1 SWAP2 SUB SWAP1 LOG1 CALLER PUSH1 0x0 SWAP1 DUP2 MSTORE PUSH1 0x6 PUSH1 0x20 MSTORE PUSH1 0x40 SWAP1 KECCAK256 SSTORE JUMP JUMPDEST PUSH1 0x0 DUP2 PUSH2 0x66B DUP2 PUSH2 0x9DB JUMP JUMPDEST SWAP3 POP POP DUP2 DUP4 LT PUSH2 0x698 JUMPI PUSH1 0x40 MLOAD PUSH4 0x2457CDE7 PUSH1 0xE0 SHL DUP2 MSTORE PUSH1 0x4 DUP2 ADD DUP5 SWAP1 MSTORE PUSH1 0x24 DUP2 ADD DUP4 SWAP1 MSTORE PUSH1 0x44 ADD PUSH2 0x30F JUMP JUMPDEST DUP3 PUSH2 0x6A3 DUP4 DUP7 PUSH2 0x9F6 JUMP JUMPDEST PUSH2 0x6AD SWAP2 SWAP1 PUSH2 0x979 JUMP JUMPDEST SWAP5 SWAP4 POP POP POP POP JUMP JUMPDEST PUSH1 0x1 SLOAD PUSH2 0x6C2 SWAP1 CALLVALUE PUSH2 0x2A5 JUMP JUMPDEST PUSH1 0x1 SSTORE JUMP JUMPDEST PUSH1 0x0 PUSH2 0x2B1 DUP3 DUP5 PUSH2 0x9C4 JUMP JUMPDEST PUSH1 0x0 PUSH2 0x2B1 DUP3 DUP5 PUSH2 0x991 JUMP JUMPDEST PUSH1 0x0 PUSH2 0x2B1 DUP3 DUP5 PUSH2 0x9A5 JUMP JUMPDEST PUSH1 0x0 DUP2 GT PUSH2 0x747 JUMPI PUSH1 0x40 MLOAD PUSH3 0x461BCD PUSH1 0xE5 SHL DUP2 MSTORE PUSH1 0x20 PUSH1 0x4 DUP3 ADD MSTORE PUSH1 0x23 PUSH1 0x24 DUP3 ADD MSTORE PUSH32 0x5061796F757420616D6F756E742073686F756C64206265206D6F726520746861 PUSH1 0x44 DUP3 ADD MSTORE PUSH3 0x6E203 PUSH1 0xEC SHL PUSH1 0x64 DUP3 ADD MSTORE PUSH1 0x84 ADD PUSH2 0x30F JUMP JUMPDEST SELFBALANCE DUP2 GT ISZERO PUSH2 0x7B6 JUMPI PUSH1 0x40 MLOAD PUSH3 0x461BCD PUSH1 0xE5 SHL DUP2 MSTORE PUSH1 0x20 PUSH1 0x4 DUP3 ADD MSTORE PUSH1 0x36 PUSH1 0x24 DUP3 ADD MSTORE PUSH32 0x5061796F757420616D6F756E742073686F756C64206E6F74206265206D6F7265 PUSH1 0x44 DUP3 ADD MSTORE PUSH22 0x207468616E20636F6E74726163742062616C616E6365 PUSH1 0x50 SHL PUSH1 0x64 DUP3 ADD MSTORE PUSH1 0x84 ADD PUSH2 0x30F JUMP JUMPDEST PUSH1 0x1 SLOAD PUSH2 0x7C3 SWAP1 DUP3 PUSH2 0x6C7 JUMP JUMPDEST PUSH1 0x1 SSTORE PUSH1 0x40 MLOAD PUSH1 0x0 SWAP1 PUSH1 0x1 PUSH1 0x1 PUSH1 0xA0 SHL SUB DUP5 AND SWAP1 DUP4 SWAP1 DUP4 DUP2 DUP2 DUP2 DUP6 DUP8 GAS CALL SWAP3 POP POP POP RETURNDATASIZE DUP1 PUSH1 0x0 DUP2 EQ PUSH2 0x811 JUMPI PUSH1 0x40 MLOAD SWAP2 POP PUSH1 0x1F NOT PUSH1 0x3F RETURNDATASIZE ADD AND DUP3 ADD PUSH1 0x40 MSTORE RETURNDATASIZE DUP3 MSTORE RETURNDATASIZE PUSH1 0x0 PUSH1 0x20 DUP5 ADD RETURNDATACOPY PUSH2 0x816 JUMP JUMPDEST PUSH1 0x60 SWAP2 POP JUMPDEST POP POP SWAP1 POP DUP1 PUSH2 0x867 JUMPI PUSH1 0x40 MLOAD PUSH3 0x461BCD PUSH1 0xE5 SHL DUP2 MSTORE PUSH1 0x20 PUSH1 0x4 DUP3 ADD MSTORE PUSH1 0x1F PUSH1 0x24 DUP3 ADD MSTORE PUSH32 0x436F756C64206E6F74207061796F757420746F207468652077696E6E65722E00 PUSH1 0x44 DUP3 ADD MSTORE PUSH1 0x64 ADD PUSH2 0x30F JUMP JUMPDEST DUP3 PUSH1 0x1 PUSH1 0x1 PUSH1 0xA0 SHL SUB AND PUSH32 0x5AFECA38B2064C23A692C4CF353015D80AB3ECC417B4F893F372690C11FBD9A6 DUP4 PUSH1 0x40 MLOAD PUSH2 0x8A2 SWAP2 DUP2 MSTORE PUSH1 0x20 ADD SWAP1 JUMP JUMPDEST PUSH1 0x40 MLOAD DUP1 SWAP2 SUB SWAP1 LOG2 POP POP POP JUMP JUMPDEST PUSH1 0x0 SLOAD PUSH1 0xFF AND ISZERO PUSH2 0x8F5 JUMPI PUSH1 0x40 MLOAD PUSH3 0x461BCD PUSH1 0xE5 SHL DUP2 MSTORE PUSH1 0x20 PUSH1 0x4 DUP3 ADD MSTORE PUSH1 0x10 PUSH1 0x24 DUP3 ADD MSTORE PUSH16 0x14185D5CD8589B194E881C185D5CD959 PUSH1 0x82 SHL PUSH1 0x44 DUP3 ADD MSTORE PUSH1 0x64 ADD PUSH2 0x30F JUMP JUMPDEST JUMP JUMPDEST PUSH1 0x0 PUSH1 0x20 DUP3 DUP5 SUB SLT ISZERO PUSH2 0x908 JUMPI DUP1 DUP2 REVERT JUMPDEST DUP2 CALLDATALOAD PUSH1 0x1 PUSH1 0x1 PUSH1 0xA0 SHL SUB DUP2 AND DUP2 EQ PUSH2 0x2B1 JUMPI DUP2 DUP3 REVERT JUMPDEST PUSH1 0x0 PUSH1 0x20 DUP3 DUP5 SUB SLT ISZERO PUSH2 0x92F JUMPI DUP1 DUP2 REVERT JUMPDEST POP MLOAD SWAP2 SWAP1 POP JUMP JUMPDEST PUSH1 0x0 PUSH1 0x20 DUP3 DUP5 SUB SLT ISZERO PUSH2 0x947 JUMPI DUP1 DUP2 REVERT JUMPDEST POP CALLDATALOAD SWAP2 SWAP1 POP JUMP JUMPDEST PUSH1 0x0 DUP1 PUSH1 0x0 PUSH1 0x60 DUP5 DUP7 SUB SLT ISZERO PUSH2 0x962 JUMPI DUP2 DUP3 REVERT JUMPDEST POP POP DUP2 CALLDATALOAD SWAP4 PUSH1 0x20 DUP4 ADD CALLDATALOAD SWAP4 POP PUSH1 0x40 SWAP1 SWAP3 ADD CALLDATALOAD SWAP2 SWAP1 POP JUMP JUMPDEST PUSH1 0x0 DUP3 NOT DUP3 GT ISZERO PUSH2 0x98C JUMPI PUSH2 0x98C PUSH2 0xA0A JUMP JUMPDEST POP ADD SWAP1 JUMP JUMPDEST PUSH1 0x0 DUP3 PUSH2 0x9A0 JUMPI PUSH2 0x9A0 PUSH2 0xA20 JUMP JUMPDEST POP DIV SWAP1 JUMP JUMPDEST PUSH1 0x0 DUP2 PUSH1 0x0 NOT DIV DUP4 GT DUP3 ISZERO ISZERO AND ISZERO PUSH2 0x9BF JUMPI PUSH2 0x9BF PUSH2 0xA0A JUMP JUMPDEST POP MUL SWAP1 JUMP JUMPDEST PUSH1 0x0 DUP3 DUP3 LT ISZERO PUSH2 0x9D6 JUMPI PUSH2 0x9D6 PUSH2 0xA0A JUMP JUMPDEST POP SUB SWAP1 JUMP JUMPDEST PUSH1 0x0 PUSH1 0x0 NOT DUP3 EQ ISZERO PUSH2 0x9EF JUMPI PUSH2 0x9EF PUSH2 0xA0A JUMP JUMPDEST POP PUSH1 0x1 ADD SWAP1 JUMP JUMPDEST PUSH1 0x0 DUP3 PUSH2 0xA05 JUMPI PUSH2 0xA05 PUSH2 0xA20 JUMP JUMPDEST POP MOD SWAP1 JUMP JUMPDEST PUSH4 0x4E487B71 PUSH1 0xE0 SHL PUSH1 0x0 MSTORE PUSH1 0x11 PUSH1 0x4 MSTORE PUSH1 0x24 PUSH1 0x0 REVERT JUMPDEST PUSH4 0x4E487B71 PUSH1 0xE0 SHL PUSH1 0x0 MSTORE PUSH1 0x12 PUSH1 0x4 MSTORE PUSH1 0x24 PUSH1 0x0 REVERT INVALID LOG2 PUSH5 0x6970667358 0x22 SLT KECCAK256 0xAF DIFFICULTY CALLVALUE CALLER 0xBF 0xF6 PUSH5 0xD88D52D150 ADDMOD 0x1E PUSH10 0x1B7F4FF9BD3DA988B622 0x29 PUSH16 0x5C20785F2A64736F6C63430008040033 "},"methodIdentifiers":{"airnode()":"a36ff4d8","balanceForBacking()":"9a26c0c4","bet(uint256)":"7365870b","deposit()":"d0e30db0","endpointIdUint256()":"07b9fc57","executeResult(uint256)":"7018a7af","getPlayerInfo(address)":"59328401","maxBet()":"2e5b2168","oraclizeFeeEstimate()":"ea3f73ad","paused()":"5c975abb","play()":"93e84cd9","rollFromToInclusive(uint256,uint256,uint256)":"b855b028","staker()":"5ebaf1db","withdraw(uint256)":"2e1a7d4d"}}}}}