{"contracts/BackingContract.sol":{"BackingContract":{"abi":[{"inputs":[],"stateMutability":"nonpayable","type":"constructor"},{"inputs":[],"name":"balanceForBacking","outputs":[{"internalType":"uint256","name":"","type":"uint256"}],"stateMutability":"view","type":"function"},{"inputs":[],"name":"deposit","outputs":[],"stateMutability":"payable","type":"function"},{"inputs":[{"internalType":"uint256","name":"ethAmount","type":"uint256"}],"name":"withdraw","outputs":[],"stateMutability":"nonpayable","type":"function"},{"stateMutability":"payable","type":"receive"}],"evm":{"bytecode":{"linkReferences":{},"object":"608060405234801561001057600080fd5b50610246806100206000396000f3fe6080604052600436106100385760003560e01c80632e1a7d4d146100545780639a26c0c414610076578063d0e30db01461009e57600080fd5b3661004f5760005461004a90346100a6565b600055005b600080fd5b34801561006057600080fd5b5061007461006f3660046101b3565b6100b9565b005b34801561008257600080fd5b5061008c60005481565b60405190815260200160405180910390f35b610074610195565b60006100b282846101cb565b9392505050565b478111156101195760405162461bcd60e51b815260206004820152602260248201527f43616e206e6f74207769746864726177206d6f7265207468616e2062616c616e604482015261636560f01b60648201526084015b60405180910390fd5b6000548111156101825760405162461bcd60e51b815260206004820152602e60248201527f43616e206e6f74207769746864726177206d6f7265207468616e2062616c616e60448201526d636520666f72206261636b696e6760901b6064820152608401610110565b60005461018f90826101a7565b60005550565b6000546101a290346100a6565b600055565b60006100b282846101e3565b6000602082840312156101c4578081fd5b5035919050565b600082198211156101de576101de6101fa565b500190565b6000828210156101f5576101f56101fa565b500390565b634e487b7160e01b600052601160045260246000fdfea2646970667358221220e129ebf19b8a0235d77fb7b83b58ba46f2c36dd2535fdd716e87f757072f762064736f6c63430008040033","opcodes":"PUSH1 0x80 PUSH1 0x40 MSTORE CALLVALUE DUP1 ISZERO PUSH2 0x10 JUMPI PUSH1 0x0 DUP1 REVERT JUMPDEST POP PUSH2 0x246 DUP1 PUSH2 0x20 PUSH1 0x0 CODECOPY PUSH1 0x0 RETURN INVALID PUSH1 0x80 PUSH1 0x40 MSTORE PUSH1 0x4 CALLDATASIZE LT PUSH2 0x38 JUMPI PUSH1 0x0 CALLDATALOAD PUSH1 0xE0 SHR DUP1 PUSH4 0x2E1A7D4D EQ PUSH2 0x54 JUMPI DUP1 PUSH4 0x9A26C0C4 EQ PUSH2 0x76 JUMPI DUP1 PUSH4 0xD0E30DB0 EQ PUSH2 0x9E JUMPI PUSH1 0x0 DUP1 REVERT JUMPDEST CALLDATASIZE PUSH2 0x4F JUMPI PUSH1 0x0 SLOAD PUSH2 0x4A SWAP1 CALLVALUE PUSH2 0xA6 JUMP JUMPDEST PUSH1 0x0 SSTORE STOP JUMPDEST PUSH1 0x0 DUP1 REVERT JUMPDEST CALLVALUE DUP1 ISZERO PUSH2 0x60 JUMPI PUSH1 0x0 DUP1 REVERT JUMPDEST POP PUSH2 0x74 PUSH2 0x6F CALLDATASIZE PUSH1 0x4 PUSH2 0x1B3 JUMP JUMPDEST PUSH2 0xB9 JUMP JUMPDEST STOP JUMPDEST CALLVALUE DUP1 ISZERO PUSH2 0x82 JUMPI PUSH1 0x0 DUP1 REVERT JUMPDEST POP PUSH2 0x8C PUSH1 0x0 SLOAD DUP2 JUMP JUMPDEST PUSH1 0x40 MLOAD SWAP1 DUP2 MSTORE PUSH1 0x20 ADD PUSH1 0x40 MLOAD DUP1 SWAP2 SUB SWAP1 RETURN JUMPDEST PUSH2 0x74 PUSH2 0x195 JUMP JUMPDEST PUSH1 0x0 PUSH2 0xB2 DUP3 DUP5 PUSH2 0x1CB JUMP JUMPDEST SWAP4 SWAP3 POP POP POP JUMP JUMPDEST SELFBALANCE DUP2 GT ISZERO PUSH2 0x119 JUMPI PUSH1 0x40 MLOAD PUSH3 0x461BCD PUSH1 0xE5 SHL DUP2 MSTORE PUSH1 0x20 PUSH1 0x4 DUP3 ADD MSTORE PUSH1 0x22 PUSH1 0x24 DUP3 ADD MSTORE PUSH32 0x43616E206E6F74207769746864726177206D6F7265207468616E2062616C616E PUSH1 0x44 DUP3 ADD MSTORE PUSH2 0x6365 PUSH1 0xF0 SHL PUSH1 0x64 DUP3 ADD MSTORE PUSH1 0x84 ADD JUMPDEST PUSH1 0x40 MLOAD DUP1 SWAP2 SUB SWAP1 REVERT JUMPDEST PUSH1 0x0 SLOAD DUP2 GT ISZERO PUSH2 0x182 JUMPI PUSH1 0x40 MLOAD PUSH3 0x461BCD PUSH1 0xE5 SHL DUP2 MSTORE PUSH1 0x20 PUSH1 0x4 DUP3 ADD MSTORE PUSH1 0x2E PUSH1 0x24 DUP3 ADD MSTORE PUSH32 0x43616E206E6F74207769746864726177206D6F7265207468616E2062616C616E PUSH1 0x44 DUP3 ADD MSTORE PUSH14 0x636520666F72206261636B696E67 PUSH1 0x90 SHL PUSH1 0x64 DUP3 ADD MSTORE PUSH1 0x84 ADD PUSH2 0x110 JUMP JUMPDEST PUSH1 0x0 SLOAD PUSH2 0x18F SWAP1 DUP3 PUSH2 0x1A7 JUMP JUMPDEST PUSH1 0x0 SSTORE POP JUMP JUMPDEST PUSH1 0x0 SLOAD PUSH2 0x1A2 SWAP1 CALLVALUE PUSH2 0xA6 JUMP JUMPDEST PUSH1 0x0 SSTORE JUMP JUMPDEST PUSH1 0x0 PUSH2 0xB2 DUP3 DUP5 PUSH2 0x1E3 JUMP JUMPDEST PUSH1 0x0 PUSH1 0x20 DUP3 DUP5 SUB SLT ISZERO PUSH2 0x1C4 JUMPI DUP1 DUP2 REVERT JUMPDEST POP CALLDATALOAD SWAP2 SWAP1 POP JUMP JUMPDEST PUSH1 0x0 DUP3 NOT DUP3 GT ISZERO PUSH2 0x1DE JUMPI PUSH2 0x1DE PUSH2 0x1FA JUMP JUMPDEST POP ADD SWAP1 JUMP JUMPDEST PUSH1 0x0 DUP3 DUP3 LT ISZERO PUSH2 0x1F5 JUMPI PUSH2 0x1F5 PUSH2 0x1FA JUMP JUMPDEST POP SUB SWAP1 JUMP JUMPDEST PUSH4 0x4E487B71 PUSH1 0xE0 SHL PUSH1 0x0 MSTORE PUSH1 0x11 PUSH1 0x4 MSTORE PUSH1 0x24 PUSH1 0x0 REVERT INVALID LOG2 PUSH5 0x6970667358 0x22 SLT KECCAK256 0xE1 0x29 0xEB CALL SWAP12 DUP11 MUL CALLDATALOAD 0xD7 PUSH32 0xB7B83B58BA46F2C36DD2535FDD716E87F757072F762064736F6C634300080400 CALLER "},"methodIdentifiers":{"balanceForBacking()":"9a26c0c4","deposit()":"d0e30db0","withdraw(uint256)":"2e1a7d4d"}}}}}