{
  "_format": "hh-sol-artifact-1",
  "contractName": "Roulette",
  "sourceName": "contracts/Roulette.sol",
  "abi": [
    {
      "inputs": [
        {
          "internalType": "address",
          "name": "stakerContractAddress",
          "type": "address"
        }
      ],
      "stateMutability": "nonpayable",
      "type": "constructor"
    },
    {
      "inputs": [
        {
          "internalType": "uint256",
          "name": "_from",
          "type": "uint256"
        },
        {
          "internalType": "uint256",
          "name": "_to",
          "type": "uint256"
        }
      ],
      "name": "InvalidRange",
      "type": "error"
    },
    {
      "anonymous": false,
      "inputs": [
        {
          "indexed": true,
          "internalType": "address",
          "name": "player",
          "type": "address"
        },
        {
          "indexed": false,
          "internalType": "uint256",
          "name": "betSize",
          "type": "uint256"
        },
        {
          "indexed": false,
          "internalType": "uint256",
          "name": "betNumber",
          "type": "uint256"
        }
      ],
      "name": "Bet",
      "type": "event"
    },
    {
      "anonymous": false,
      "inputs": [
        {
          "indexed": false,
          "internalType": "bytes32",
          "name": "requestId",
          "type": "bytes32"
        }
      ],
      "name": "GameStart",
      "type": "event"
    },
    {
      "anonymous": false,
      "inputs": [
        {
          "indexed": false,
          "internalType": "address",
          "name": "account",
          "type": "address"
        }
      ],
      "name": "Paused",
      "type": "event"
    },
    {
      "anonymous": false,
      "inputs": [
        {
          "indexed": true,
          "internalType": "address",
          "name": "winner",
          "type": "address"
        },
        {
          "indexed": false,
          "internalType": "uint256",
          "name": "payout",
          "type": "uint256"
        }
      ],
      "name": "Payout",
      "type": "event"
    },
    {
      "anonymous": false,
      "inputs": [
        {
          "indexed": true,
          "internalType": "address",
          "name": "player",
          "type": "address"
        },
        {
          "indexed": false,
          "internalType": "uint256",
          "name": "betSize",
          "type": "uint256"
        },
        {
          "indexed": false,
          "internalType": "uint256",
          "name": "betNumber",
          "type": "uint256"
        },
        {
          "indexed": false,
          "internalType": "uint256",
          "name": "winningNumber",
          "type": "uint256"
        }
      ],
      "name": "Play",
      "type": "event"
    },
    {
      "anonymous": false,
      "inputs": [
        {
          "indexed": false,
          "internalType": "address",
          "name": "account",
          "type": "address"
        }
      ],
      "name": "Unpaused",
      "type": "event"
    },
    {
      "inputs": [],
      "name": "airnode",
      "outputs": [
        {
          "internalType": "address",
          "name": "",
          "type": "address"
        }
      ],
      "stateMutability": "view",
      "type": "function"
    },
    {
      "inputs": [],
      "name": "balanceForBacking",
      "outputs": [
        {
          "internalType": "uint256",
          "name": "",
          "type": "uint256"
        }
      ],
      "stateMutability": "view",
      "type": "function"
    },
    {
      "inputs": [
        {
          "internalType": "uint256",
          "name": "number",
          "type": "uint256"
        }
      ],
      "name": "bet",
      "outputs": [],
      "stateMutability": "payable",
      "type": "function"
    },
    {
      "inputs": [],
      "name": "deposit",
      "outputs": [],
      "stateMutability": "payable",
      "type": "function"
    },
    {
      "inputs": [],
      "name": "endpointIdUint256",
      "outputs": [
        {
          "internalType": "bytes32",
          "name": "",
          "type": "bytes32"
        }
      ],
      "stateMutability": "view",
      "type": "function"
    },
    {
      "inputs": [
        {
          "internalType": "uint256",
          "name": "randomNumber",
          "type": "uint256"
        }
      ],
      "name": "executeResult",
      "outputs": [],
      "stateMutability": "nonpayable",
      "type": "function"
    },
    {
      "inputs": [
        {
          "internalType": "address",
          "name": "player",
          "type": "address"
        }
      ],
      "name": "getPlayerInfo",
      "outputs": [],
      "stateMutability": "view",
      "type": "function"
    },
    {
      "inputs": [],
      "name": "maxBet",
      "outputs": [
        {
          "internalType": "uint256",
          "name": "",
          "type": "uint256"
        }
      ],
      "stateMutability": "view",
      "type": "function"
    },
    {
      "inputs": [],
      "name": "oraclizeFeeEstimate",
      "outputs": [
        {
          "internalType": "uint256",
          "name": "",
          "type": "uint256"
        }
      ],
      "stateMutability": "pure",
      "type": "function"
    },
    {
      "inputs": [],
      "name": "paused",
      "outputs": [
        {
          "internalType": "bool",
          "name": "",
          "type": "bool"
        }
      ],
      "stateMutability": "view",
      "type": "function"
    },
    {
      "inputs": [],
      "name": "play",
      "outputs": [],
      "stateMutability": "nonpayable",
      "type": "function"
    },
    {
      "inputs": [
        {
          "internalType": "uint256",
          "name": "_rng",
          "type": "uint256"
        },
        {
          "internalType": "uint256",
          "name": "_from",
          "type": "uint256"
        },
        {
          "internalType": "uint256",
          "name": "_to",
          "type": "uint256"
        }
      ],
      "name": "rollFromToInclusive",
      "outputs": [
        {
          "internalType": "uint256",
          "name": "",
          "type": "uint256"
        }
      ],
      "stateMutability": "pure",
      "type": "function"
    },
    {
      "inputs": [],
      "name": "staker",
      "outputs": [
        {
          "internalType": "contract Staker",
          "name": "",
          "type": "address"
        }
      ],
      "stateMutability": "view",
      "type": "function"
    },
    {
      "inputs": [
        {
          "internalType": "uint256",
          "name": "ethAmount",
          "type": "uint256"
        }
      ],
      "name": "withdraw",
      "outputs": [],
      "stateMutability": "nonpayable",
      "type": "function"
    },
    {
      "stateMutability": "payable",
      "type": "receive"
    }
  ],
  "bytecode": "0x608060405234801561001057600080fd5b50604051610b07380380610b0783398101604081905261002f9161005e565b6000805460ff19169055600280546001600160a01b0319166001600160a01b039290921691909117905561008c565b60006020828403121561006f578081fd5b81516001600160a01b0381168114610085578182fd5b9392505050565b610a6c8061009b6000396000f3fe6080604052600436106100e15760003560e01c80637365870b1161007f578063a36ff4d811610059578063a36ff4d814610244578063b855b02814610264578063d0e30db014610284578063ea3f73ad1461028c57600080fd5b80637365870b1461020657806393e84cd9146102195780639a26c0c41461022e57600080fd5b806359328401116100bb578063593284011461015d5780635c975abb1461018b5780635ebaf1db146101ae5780637018a7af146101e657600080fd5b806307b9fc57146100fd5780632e1a7d4d146101265780632e5b21681461014857600080fd5b366100f8576001546100f390346102a5565b600155005b600080fd5b34801561010957600080fd5b5061011360045481565b6040519081526020015b60405180910390f35b34801561013257600080fd5b50610146610141366004610936565b6102b8565b005b34801561015457600080fd5b50610113610394565b34801561016957600080fd5b506101466101783660046108f7565b6001600160a01b03166000526005602052565b34801561019757600080fd5b5060005460ff16604051901515815260200161011d565b3480156101ba57600080fd5b506002546101ce906001600160a01b031681565b6040516001600160a01b03909116815260200161011d565b3480156101f257600080fd5b50610146610201366004610936565b6103ba565b610146610214366004610936565b61048b565b34801561022557600080fd5b50610146610594565b34801561023a57600080fd5b5061011360015481565b34801561025057600080fd5b506003546101ce906001600160a01b031681565b34801561027057600080fd5b5061011361027f36600461094e565b61065f565b6101466106b5565b34801561029857600080fd5b50659a9d359ca000610113565b60006102b18284610979565b9392505050565b478111156103185760405162461bcd60e51b815260206004820152602260248201527f43616e206e6f74207769746864726177206d6f7265207468616e2062616c616e604482015261636560f01b60648201526084015b60405180910390fd5b6001548111156103815760405162461bcd60e51b815260206004820152602e60248201527f43616e206e6f74207769746864726177206d6f7265207468616e2062616c616e60448201526d636520666f72206261636b696e6760901b606482015260840161030f565b60015461038e90826106c7565b60015550565b6000659a9d359ca0006001546103ab9060c86106d3565b6103b59190610979565b905090565b60006103c9826000602461065f565b336000908152600560209081526040918290208054600182015460028301548551918252938101939093529282018490529293506001600160a01b03909116907ff8c0ba48b6d4587529590935d240b8f6c80e8f0efb1bf6f802c36e24a92f2e2e9060600160405180910390a26001808201549054610447916102a5565b600155600281015482141561048657805460018201546001600160a01b03909116906000906104779060246106df565b905061048382826106eb565b50505b505050565b6104936108af565b61049b610394565b3411156104f95760405162461bcd60e51b815260206004820152602660248201527f42657420616d6f756e742063616e206e6f7420657863656564206d6178206265604482015265742073697a6560d01b606482015260840161030f565b6040805160608101825233808252346020808401828152848601878152600085815260058452879020955186546001600160a01b0319166001600160a01b03909116178655905160018601555160029094019390935583518181529283018590529290917ff41b7910e085d0992d604fd470931728fd77cc8eb504d99e50e51a0a30fcfd1a910160405180910390a2610590610594565b5050565b6002546040805163dea12bad60e01b815290516000926001600160a01b03169163dea12bad91600480830192602092919082900301818787803b1580156105da57600080fd5b505af11580156105ee573d6000803e3d6000fd5b505050506040513d601f19601f82011682018060405250810190610612919061091e565b90507f15798af791e860e2bf7c3d5ca037dfd7dd84743253b05194dbbb5059a3469a338160405161064591815260200190565b60405180910390a133600090815260066020526040902055565b60008161066b816109db565b92505081831061069857604051632457cde760e01b8152600481018490526024810183905260440161030f565b826106a383866109f6565b6106ad9190610979565b949350505050565b6001546106c290346102a5565b600155565b60006102b182846109c4565b60006102b18284610991565b60006102b182846109a5565b600081116107475760405162461bcd60e51b815260206004820152602360248201527f5061796f757420616d6f756e742073686f756c64206265206d6f72652074686160448201526206e20360ec1b606482015260840161030f565b478111156107b65760405162461bcd60e51b815260206004820152603660248201527f5061796f757420616d6f756e742073686f756c64206e6f74206265206d6f7265604482015275207468616e20636f6e74726163742062616c616e636560501b606482015260840161030f565b6001546107c390826106c7565b6001556040516000906001600160a01b0384169083908381818185875af1925050503d8060008114610811576040519150601f19603f3d011682016040523d82523d6000602084013e610816565b606091505b50509050806108675760405162461bcd60e51b815260206004820152601f60248201527f436f756c64206e6f74207061796f757420746f207468652077696e6e65722e00604482015260640161030f565b826001600160a01b03167f5afeca38b2064c23a692c4cf353015d80ab3ecc417b4f893f372690c11fbd9a6836040516108a291815260200190565b60405180910390a2505050565b60005460ff16156108f55760405162461bcd60e51b815260206004820152601060248201526f14185d5cd8589b194e881c185d5cd95960821b604482015260640161030f565b565b600060208284031215610908578081fd5b81356001600160a01b03811681146102b1578182fd5b60006020828403121561092f578081fd5b5051919050565b600060208284031215610947578081fd5b5035919050565b600080600060608486031215610962578182fd5b505081359360208301359350604090920135919050565b6000821982111561098c5761098c610a0a565b500190565b6000826109a0576109a0610a20565b500490565b60008160001904831182151516156109bf576109bf610a0a565b500290565b6000828210156109d6576109d6610a0a565b500390565b60006000198214156109ef576109ef610a0a565b5060010190565b600082610a0557610a05610a20565b500690565b634e487b7160e01b600052601160045260246000fd5b634e487b7160e01b600052601260045260246000fdfea2646970667358221220af443433bff664d88d52d150081e691b7f4ff9bd3da988b622296f5c20785f2a64736f6c63430008040033",
  "linkReferences": {},
  "deployedLinkReferences": {}
}