{
  "_format": "hh-sol-artifact-1",
  "contractName": "Staker",
  "sourceName": "contracts/Staker.sol",
  "abi": [
    {
      "inputs": [
        {
          "internalType": "address",
          "name": "_airnodeRrp",
          "type": "address"
        }
      ],
      "stateMutability": "nonpayable",
      "type": "constructor"
    },
    {
      "anonymous": false,
      "inputs": [
        {
          "indexed": true,
          "internalType": "bytes32",
          "name": "requestId",
          "type": "bytes32"
        },
        {
          "indexed": false,
          "internalType": "uint256",
          "name": "response",
          "type": "uint256"
        }
      ],
      "name": "ReceivedUint256",
      "type": "event"
    },
    {
      "anonymous": false,
      "inputs": [
        {
          "indexed": true,
          "internalType": "bytes32",
          "name": "requestId",
          "type": "bytes32"
        },
        {
          "indexed": false,
          "internalType": "uint256[]",
          "name": "response",
          "type": "uint256[]"
        }
      ],
      "name": "ReceivedUint256Array",
      "type": "event"
    },
    {
      "anonymous": false,
      "inputs": [
        {
          "indexed": true,
          "internalType": "bytes32",
          "name": "requestId",
          "type": "bytes32"
        }
      ],
      "name": "RequestedUint256",
      "type": "event"
    },
    {
      "anonymous": false,
      "inputs": [
        {
          "indexed": true,
          "internalType": "bytes32",
          "name": "requestId",
          "type": "bytes32"
        },
        {
          "indexed": false,
          "internalType": "uint256",
          "name": "size",
          "type": "uint256"
        }
      ],
      "name": "RequestedUint256Array",
      "type": "event"
    },
    {
      "inputs": [],
      "name": "airnode",
      "outputs": [
        {
          "internalType": "address",
          "name": "",
          "type": "address"
        }
      ],
      "stateMutability": "view",
      "type": "function"
    },
    {
      "inputs": [],
      "name": "airnodeRrp",
      "outputs": [
        {
          "internalType": "contract IAirnodeRrpV0",
          "name": "",
          "type": "address"
        }
      ],
      "stateMutability": "view",
      "type": "function"
    },
    {
      "inputs": [],
      "name": "endpointIdUint256",
      "outputs": [
        {
          "internalType": "bytes32",
          "name": "",
          "type": "bytes32"
        }
      ],
      "stateMutability": "view",
      "type": "function"
    },
    {
      "inputs": [],
      "name": "endpointIdUint256Array",
      "outputs": [
        {
          "internalType": "bytes32",
          "name": "",
          "type": "bytes32"
        }
      ],
      "stateMutability": "view",
      "type": "function"
    },
    {
      "inputs": [
        {
          "internalType": "bytes32",
          "name": "",
          "type": "bytes32"
        }
      ],
      "name": "expectingRequestWithIdToBeFulfilled",
      "outputs": [
        {
          "internalType": "bool",
          "name": "",
          "type": "bool"
        }
      ],
      "stateMutability": "view",
      "type": "function"
    },
    {
      "inputs": [
        {
          "internalType": "bytes32",
          "name": "requestId",
          "type": "bytes32"
        },
        {
          "internalType": "bytes",
          "name": "data",
          "type": "bytes"
        }
      ],
      "name": "fulfillUint256",
      "outputs": [],
      "stateMutability": "nonpayable",
      "type": "function"
    },
    {
      "inputs": [
        {
          "internalType": "bytes32",
          "name": "requestId",
          "type": "bytes32"
        },
        {
          "internalType": "bytes",
          "name": "data",
          "type": "bytes"
        }
      ],
      "name": "fulfillUint256Array",
      "outputs": [],
      "stateMutability": "nonpayable",
      "type": "function"
    },
    {
      "inputs": [],
      "name": "makeRequestUint256",
      "outputs": [
        {
          "internalType": "bytes32",
          "name": "",
          "type": "bytes32"
        }
      ],
      "stateMutability": "nonpayable",
      "type": "function"
    },
    {
      "inputs": [
        {
          "internalType": "uint256",
          "name": "size",
          "type": "uint256"
        }
      ],
      "name": "makeRequestUint256Array",
      "outputs": [],
      "stateMutability": "nonpayable",
      "type": "function"
    },
    {
      "inputs": [
        {
          "internalType": "bytes32",
          "name": "",
          "type": "bytes32"
        }
      ],
      "name": "requestIdWinningNumber",
      "outputs": [
        {
          "internalType": "uint256",
          "name": "",
          "type": "uint256"
        }
      ],
      "stateMutability": "view",
      "type": "function"
    },
    {
      "inputs": [],
      "name": "roulette",
      "outputs": [
        {
          "internalType": "contract Roulette",
          "name": "",
          "type": "address"
        }
      ],
      "stateMutability": "view",
      "type": "function"
    },
    {
      "inputs": [
        {
          "internalType": "address",
          "name": "_airnode",
          "type": "address"
        },
        {
          "internalType": "bytes32",
          "name": "_endpointIdUint256",
          "type": "bytes32"
        },
        {
          "internalType": "bytes32",
          "name": "_endpointIdUint256Array",
          "type": "bytes32"
        },
        {
          "internalType": "address",
          "name": "_sponsorWallet",
          "type": "address"
        }
      ],
      "name": "setRequestParameters",
      "outputs": [],
      "stateMutability": "nonpayable",
      "type": "function"
    },
    {
      "inputs": [
        {
          "internalType": "contract Roulette",
          "name": "_roulette",
          "type": "address"
        }
      ],
      "name": "setRoulette",
      "outputs": [],
      "stateMutability": "nonpayable",
      "type": "function"
    },
    {
      "inputs": [],
      "name": "sponsorWallet",
      "outputs": [
        {
          "internalType": "address",
          "name": "",
          "type": "address"
        }
      ],
      "stateMutability": "view",
      "type": "function"
    }
  ],
  "bytecode": "0x60a060405234801561001057600080fd5b50604051610bf4380380610bf483398101604081905261002f916100aa565b606081901b6001600160601b031916608052604051632b77c09f60e21b81523060048201526001602482015281906001600160a01b0382169063addf027c90604401600060405180830381600087803b15801561008b57600080fd5b505af115801561009f573d6000803e3d6000fd5b5050505050506100d8565b6000602082840312156100bb578081fd5b81516001600160a01b03811681146100d1578182fd5b9392505050565b60805160601c610ae2610112600039600081816101e3015281816102a50152818161041b0152818161051f01526107020152610ae26000f3fe608060405234801561001057600080fd5b50600436106100ea5760003560e01c806371bab6661161008c578063a36ff4d811610066578063a36ff4d814610259578063bf90fb4e1461026c578063dea12bad1461027f578063e713f1271461028757600080fd5b806371bab666146101de578063851244f71461021d578063a19954af1461025057600080fd5b80632b7d3d22116100c85780632b7d3d22146101405780632d0a2345146101535780633718d90a146101835780635675e4e41461019657600080fd5b806307b9fc57146100ef5780630d31d52a1461010b578063204288ca14610120575b600080fd5b6100f860015481565b6040519081526020015b60405180910390f35b61011e610119366004610901565b61029a565b005b6100f861012e3660046108d1565b60066020526000908152604090205481565b61011e61014e3660046108d1565b6103c7565b61011e610161366004610978565b600480546001600160a01b0319166001600160a01b0392909216919091179055565b61011e610191366004610901565b610514565b61011e6101a43660046107c8565b600080546001600160a01b039586166001600160a01b03199182161790915560019390935560029190915560038054919093169116179055565b6102057f000000000000000000000000000000000000000000000000000000000000000081565b6040516001600160a01b039091168152602001610102565b61024061022b3660046108d1565b60056020526000908152604090205460ff1681565b6040519015158152602001610102565b6100f860025481565b600054610205906001600160a01b031681565b600354610205906001600160a01b031681565b6100f861069f565b600454610205906001600160a01b031681565b336001600160a01b037f000000000000000000000000000000000000000000000000000000000000000016146103105760405162461bcd60e51b8152602060048201526016602482015275043616c6c6572206e6f74204169726e6f6465205252560541b60448201526064015b60405180910390fd5b60008381526005602052604090205460ff166103655760405162461bcd60e51b81526020600482015260146024820152732932b8bab2b9ba1024a2103737ba1035b737bbb760611b6044820152606401610307565b6000838152600560205260408120805460ff1916905561038782840184610811565b9050837f47b5f552f55573ad9b766ef18360830d3e90ecdfbef4c7bea49379a0ce64913c826040516103b99190610a3a565b60405180910390a250505050565b600080546002546003546040805161317560f01b60208201526373697a6560e01b818301526060808201889052825180830390910181526080820192839052636e6be03f60e01b9092526001600160a01b037f0000000000000000000000000000000000000000000000000000000000000000811695636e6be03f95610466959183169490933093909216918391630698ea9560e11b9160840161099b565b602060405180830381600087803b15801561048057600080fd5b505af1158015610494573d6000803e3d6000fd5b505050506040513d601f19601f820116820180604052508101906104b891906108e9565b60008181526005602052604090819020805460ff191660011790555190915081907f6529de56040715a55618ee5797cd3bc856b65ded8fee01e2a24c8481de9e2aaf906105089085815260200190565b60405180910390a25050565b336001600160a01b037f000000000000000000000000000000000000000000000000000000000000000016146105855760405162461bcd60e51b8152602060048201526016602482015275043616c6c6572206e6f74204169726e6f6465205252560541b6044820152606401610307565b60008381526005602052604090205460ff166105da5760405162461bcd60e51b81526020600482015260146024820152732932b8bab2b9ba1024a2103737ba1035b737bbb760611b6044820152606401610307565b6000838152600560205260408120805460ff191690556105fc828401846108d1565b60008581526006602052604090819020829055600480549151637018a7af60e01b81529081018390529192506001600160a01b031690637018a7af90602401600060405180830381600087803b15801561065557600080fd5b505af1158015610669573d6000803e3d6000fd5b50505050837f1ca47bacd454c26163f84eff4aa514e291ba9fa67ad6029e39567c122bbed30f826040516103b991815260200190565b60008054600154600354604051636e6be03f60e01b81526001600160a01b0393841660048201526024810192909252306044830181905290831660648301526084820152631b8c6c8560e11b60a482015260e060c482015260e4810183905282917f00000000000000000000000000000000000000000000000000000000000000001690636e6be03f9061010401602060405180830381600087803b15801561074757600080fd5b505af115801561075b573d6000803e3d6000fd5b505050506040513d601f19601f8201168201806040525081019061077f91906108e9565b600081815260056020526040808220805460ff191660011790555191925082917fcba2da2f3c0c732a104019a3104936397dde7343964c1518ceb760052e4537b19190a2919050565b600080600080608085870312156107dd578384fd5b84356107e881610a94565b93506020850135925060408501359150606085013561080681610a94565b939692955090935050565b60006020808385031215610823578182fd5b823567ffffffffffffffff8082111561083a578384fd5b818501915085601f83011261084d578384fd5b81358181111561085f5761085f610a7e565b8060051b604051601f19603f8301168101818110858211171561088457610884610a7e565b604052828152858101935084860182860187018a10156108a2578788fd5b8795505b838610156108c45780358552600195909501949386019386016108a6565b5098975050505050505050565b6000602082840312156108e2578081fd5b5035919050565b6000602082840312156108fa578081fd5b5051919050565b600080600060408486031215610915578283fd5b83359250602084013567ffffffffffffffff80821115610933578384fd5b818601915086601f830112610946578384fd5b813581811115610954578485fd5b876020828501011115610965578485fd5b6020830194508093505050509250925092565b600060208284031215610989578081fd5b813561099481610a94565b9392505050565b6001600160a01b03888116825260208083018990528782166040840152868216606084015290851660808301526001600160e01b0319841660a083015260e060c083018190528351908301819052600091825b82811015610a0b57858101820151858201610100015281016109ee565b82811115610a1d578361010084870101525b5050601f01601f1916919091016101000198975050505050505050565b6020808252825182820181905260009190848201906040850190845b81811015610a7257835183529284019291840191600101610a56565b50909695505050505050565b634e487b7160e01b600052604160045260246000fd5b6001600160a01b0381168114610aa957600080fd5b5056fea26469706673582212201fcd617b5d3b8296a7f5ae4a04fcd6597968ecb9b5c1b65f4bd404eaf8a3795664736f6c63430008040033",
  "linkReferences": {},
  "deployedLinkReferences": {}
}