{
  "_format": "hh-sol-artifact-1",
  "contractName": "RrpRequesterV0",
  "sourceName": "@api3/airnode-protocol/contracts/rrp/requesters/RrpRequesterV0.sol",
  "abi": [
    {
      "inputs": [
        {
          "internalType": "address",
          "name": "_airnodeRrp",
          "type": "address"
        }
      ],
      "stateMutability": "nonpayable",
      "type": "constructor"
    },
    {
      "inputs": [],
      "name": "airnodeRrp",
      "outputs": [
        {
          "internalType": "contract IAirnodeRrpV0",
          "name": "",
          "type": "address"
        }
      ],
      "stateMutability": "view",
      "type": "function"
    }
  ],
  "bytecode": "0x60a060405234801561001057600080fd5b5060405161019538038061019583398101604081905261002f916100a7565b606081901b6001600160601b031916608052604051632b77c09f60e21b8152306004820152600160248201526001600160a01b0382169063addf027c90604401600060405180830381600087803b15801561008957600080fd5b505af115801561009d573d6000803e3d6000fd5b50505050506100d5565b6000602082840312156100b8578081fd5b81516001600160a01b03811681146100ce578182fd5b9392505050565b60805160601c60a56100f060003960006031015260a56000f3fe6080604052348015600f57600080fd5b506004361060285760003560e01c806371bab66614602d575b600080fd5b60537f000000000000000000000000000000000000000000000000000000000000000081565b6040516001600160a01b03909116815260200160405180910390f3fea2646970667358221220cafabde831b643f9311e22829d791cfc09c42110abb044edbf8b2dbe7b8f1f1c64736f6c63430008040033",
  "linkReferences": {},
  "deployedLinkReferences": {}
}