{
  "_format": "hh-sol-artifact-1",
  "contractName": "BackingContract",
  "sourceName": "contracts/BackingContract.sol",
  "abi": [
    {
      "inputs": [],
      "stateMutability": "nonpayable",
      "type": "constructor"
    },
    {
      "inputs": [],
      "name": "balanceForBacking",
      "outputs": [
        {
          "internalType": "uint256",
          "name": "",
          "type": "uint256"
        }
      ],
      "stateMutability": "view",
      "type": "function"
    },
    {
      "inputs": [],
      "name": "deposit",
      "outputs": [],
      "stateMutability": "payable",
      "type": "function"
    },
    {
      "inputs": [
        {
          "internalType": "uint256",
          "name": "ethAmount",
          "type": "uint256"
        }
      ],
      "name": "withdraw",
      "outputs": [],
      "stateMutability": "nonpayable",
      "type": "function"
    },
    {
      "stateMutability": "payable",
      "type": "receive"
    }
  ],
  "bytecode": "0x608060405234801561001057600080fd5b50610246806100206000396000f3fe6080604052600436106100385760003560e01c80632e1a7d4d146100545780639a26c0c414610076578063d0e30db01461009e57600080fd5b3661004f5760005461004a90346100a6565b600055005b600080fd5b34801561006057600080fd5b5061007461006f3660046101b3565b6100b9565b005b34801561008257600080fd5b5061008c60005481565b60405190815260200160405180910390f35b610074610195565b60006100b282846101cb565b9392505050565b478111156101195760405162461bcd60e51b815260206004820152602260248201527f43616e206e6f74207769746864726177206d6f7265207468616e2062616c616e604482015261636560f01b60648201526084015b60405180910390fd5b6000548111156101825760405162461bcd60e51b815260206004820152602e60248201527f43616e206e6f74207769746864726177206d6f7265207468616e2062616c616e60448201526d636520666f72206261636b696e6760901b6064820152608401610110565b60005461018f90826101a7565b60005550565b6000546101a290346100a6565b600055565b60006100b282846101e3565b6000602082840312156101c4578081fd5b5035919050565b600082198211156101de576101de6101fa565b500190565b6000828210156101f5576101f56101fa565b500390565b634e487b7160e01b600052601160045260246000fdfea2646970667358221220e129ebf19b8a0235d77fb7b83b58ba46f2c36dd2535fdd716e87f757072f762064736f6c63430008040033",
  "linkReferences": {},
  "deployedLinkReferences": {}
}